:1000000050540020B90000004D0600009304000089
:100010009304000093040000930400009304000084
:100020000000000000000000000000009304000039
:1000300093040000000000009304000093040000FB
:1000400000000000000000000000000000000000B0
:10005000850D0000C90C0000F90D0000310E0000F4
:100060000200000070000000030000008800000093
:1000700064540020B057002000000003B057002057
:10008000B457002000000003004000200040002082
:100090000000104000000203004000204C400020FF
:1000A0004004000000000103B0570020B0570020BA
:1000B0008C0400000000010300F004F800F0FAFED8
:1000C000FEE7D4D470B521482149016000242046C0
:1000D00000F0F8FE00F008FA0125284600F0F2FED4
:1000E0001C4884804AF2005101801B49816040F223
:1000F00000428918C160194941F200020A808580D6
:10010000204600F033F800F0DDF900F04BFA284605
:1001100000F02CF8124D284601F0AEFD284601F003
:10012000BFFD104D1048401B8610B44203DA01CDCC
:100130008047641CF9E7022000F0C4FE00F0FEFADC
:10014000002070BC02BC8E4600F0A2B908ED00E0B1
:1001500000000000000D00405050002020610040D1
:10016000B0570020A43A0000A43A0000F8B50446B5
:100170000F4DC0CD083D56B1787A844204D103CFEB
:10018000091A083F01F072FC0C37761EF3E7AE68DF
:10019000ED685EB1687B844205D105CD2968121AED
:1001A000083D01F069FC1035761EF2E7F8BDC04647
:0401B00060000000EB
:04040000FFFFFFFFFC
:04040400DFCFFFFF48
:1004400040000C0000000100000000009D130000AF
:10045000000000000000020079140000000000000D
:10046000CD1400002C550020000100000000000009
:1004700000000000000000002C56002000010000D9
:0C04800000000000000000000000000070
:10049000704700BE7047D4D408490A7890420CD007
:1004A000074A137813B99379DB07FCD00A78D20690
:1004B000FCD408700878C006FCD47047A0E0014066
:1004C00036E001400548817900688900044A5158A6
:1004D0004001400FC14003480160704720E00140E7
:1004E0005054002064540020F8B52148C01C214914
:1004F0000880214848F200010024204A204B036074
:1005000042608160C46001611E4F01253D71FFF7AB
:10051000D9FF1D4E307810B97078800723D030781D
:1005200038B93570C820294600F058F830780128CD
:10053000FCD1747034704AF20056144803210170E3
:100540002046FFF7A9FF12488475017FC907FCD038
:1005500045743D7040F2001101608471FFF7B2FFF5
:1005600004480680F8BD40F2E83000F013F8E2E7F6
:1005700000A5FFFFFEE301405054002000127A0066
:10058000006CDC02C4FF7E4080E40140A5E0014035
:1005900020E001407047D4D48000014908587047DA
:1005A00050540020B0B50C4C00252571C820012105
:1005B00000F014F8257020780028FCD12078022162
:1005C0000143217020788007FCD4A01E05700178BB
:1005D0000029FCD1B0BDC0462440044030B40246DE
:1005E000144804681448B0FBF4F34A4340F2E8307E
:1005F0001249134D8A4203D2AC4205D8042104E0CB
:10060000AC4208D8042407E006215043B0FBF3F0C5
:10061000B0FBF1F006E006246343B2FBF3F28A423A
:1006200003D2504318B930BC70470020C04330BCDF
:1006300000F008B86454002000CA9A3B3889410091
:100640000048E80101380028FCD17047F8B50B4993
:1006500008880E8C0640B7B20024094D0D2C0AD034
:100660003846E040C00703D0296809B120468847D2
:100670002D1D641CF2E701480682F8BD2061004090
:100680006854002080000449425801231B049A4307
:10069000425040587047C0460063004010B50446C1
:1006A000FFF7F0FF1F20204001218140BFF35F8F43
:1006B00060098000014A815010BDC04680E200E020
:1006C000B0B58300084CE250032283079043074AE9
:1006D0008458DB0EFF259D40AC438901C9B2994087
:1006E00021438150B0BDC046A054002000E400E08A
:1006F0001F21014001228A404009800001494250E7
:100700007047C04600E100E010B50446FFF7C6FFA1
:10071000204610BC02BC8E46FFF7EABF1F210140F5
:1007200001228A404009800003494250BFF34F8FA5
:10073000BFF36F8F7047C04680E100E0002005499D
:10074000054A082805D0135C03B10B60091D401C45
:10075000F7E77047006300401C36000080B50A4A86
:1007600011680818094B984209D30A48784401686F
:100770000C2201F0A5FA42500020C04380BD106059
:100780000348401880BDC046C0540020011000003E
:10079000504000203033000080B5034A0260084614
:1007A00000F004F8002080BD54524F5070B504464C
:1007B00000F014F8002504262088854209D26168DB
:1007C000885B8919091F096800F020F808366D1C3C
:1007D000F2E770BC01BC864600F032B8EFF310803F
:1007E000012181F3108807490A6822B9064A0023CB
:1007F0001370402313700A68521C0A6080F310883B
:100800007047C0469C540020030D0440F0B5020A16
:10081000CB03094B01D4C0B209E094011C19C0B24A
:1008200085006659054F3E4066510F406751920161
:100830009A1880001150F0BD00080440FFFFFEFF31
:10084000EFF31080012181F3108808490A6812B182
:100850000A68521E0A60096821B9054900220A7017
:1008600080220A7080F310887047C0469C54002094
:10087000030D0440F0B587B00125002800D1A8E0A1
:100880000E46002900D1A4E0F269002A00D1A0E0C0
:1008900004465068002800D19BE060687449884293
:1008A00001D10E2595E0307801210B468340724F2F
:1008B0003B4200D18AE0137B0325082B00D188E05E
:1008C000032B04D152896D4B9A4200D181E005235C
:1008D000F256002A00D57BE007257257002A77D40C
:1008E00006930923F256002A72D405950B2204922E
:1008F000B256002A0D466CD40393A17803220292CB
:1009000091434A1C7369B5690195A2700025257051
:1009100040015B4A8018E6612246203229C20198D4
:10092000E062707810B902200143A1700498325639
:10093000B17A2046534B9847069832563179204673
:10094000504B984705983256B17920464D4B984701
:1009500003983256317A20464A4B9847EFF310807D
:10096000012181F310883278C907D140464A1368C3
:100970008B431360116880F31088206A8570206AA9
:100980000571206A4572206A8572206AC572206AE4
:1009900045833078C740F80702D0206A4021C174EF
:1009A000206A06210177307818B9206A4FF60001D5
:1009B0008182B0780101F078C000084372785AB1A2
:1009C000F221032A09D14022104306E0294D00E01C
:1009D0000D46284607B0F0BDE221226A1070206A59
:1009E0008171206AF1690A7BD207920F427388787D
:1009F0004A78236A1D72D201C007800E80180A78D7
:100A0000FE231340226A022B0AD1FF235370097878
:100A1000022901D110210843069A216AC87105E014
:100A2000D0714968206A00F039F9069AE5602561BD
:100A30006561A561E0698056F16906910F78134EF2
:100A4000B047E06904994056B047E06905994056BF
:100A5000B047E06903994056B047029807407037A5
:100A6000206A877002486060069840892081B0E75C
:100A7000554943537A05000007020000FFFF0000BC
:100A800000000740910E00000070044009070000BC
:100A900070B514460E46054600F0E8F800B170BD8A
:100AA000A86908B1082070BD6E61AC61002070BDFE
:100AB00070B516460D46044600F0D8F800B170BD7A
:100AC000206908B1082070BD206A81787B220A4025
:100AD0008270A07803210840321A2818E060226151
:100AE000206A8278802313438370A078084002280C
:100AF00006D128884FF600610143206AC18102E0D7
:100B0000206A2978C170002070BDD4D470B501244A
:100B1000B8B1054640680C4A904211D1286A8278E3
:100B200092070ED486780B22324082700024EC604B
:100B3000286A00F0B3F87B203040296A887000E012
:100B40000724204670BDC046554943530246012044
:100B500042B139B15068054A904204D10020C243E5
:100B60000A604A60704707207047C04655494353A2
:100B700010B538B142680C4B9A4205D18A0705D4AA
:100B800006220AE001220CE007220AE0026A9378BA
:100B90007B241C40947000220261C90701D000220E
:100BA0008261104610BDC04655494353B0B5044656
:100BB000012044B139B16068044DA84204D161629A
:100BC000A362E2620020B0BD0720B0BD5549435387
:100BD00070B550B3054640681649884227D10024B5
:100BE0006C60286A8470E86905214056124EB0474F
:100BF000E8690B214056B047E86907214056B047E5
:100C0000E86909214056B047EFF31080012181F3D4
:100C10001088C907EA691278D140084A13680B4363
:100C20001360116880F3108802E0012400E00724BB
:100C3000204670BD554943531D0700000070044015
:100C400040B14268064B9A4206D182690A6000218F
:100C5000816102E0012100E0072108467047C0469B
:100C600055494353062070470620704710B5034688
:100C7000012073B169B162B15868074CA04209D133
:100C80009B7803200340022B02D10A43D10700D1F5
:100C9000002010BD072010BD5549435310B58A7878
:100CA00042704A78032313400278FC241440E2186F
:100CB0000270CA788274C279A323134009785C2237
:100CC0000A40D118C17110BD10B5EFF30380103880
:100CD00044B22046FFF7D6FCA00019490858016924
:100CE000C2691269C2B9C1B1837803210B40C268DD
:100CF000022B06D112884FF600631343026AD38198
:100D000002E0036A1278DA7082780A400169891A6F
:100D10000161C3689A18C26081B9016A8A787B232D
:100D200013401A1D8A700021C160416A31B100214F
:100D3000802210BC08BC9E4600F004B810BDC0461E
:100D4000A0540020F0B587B00446836A03A843B1DD
:100D5000019103A91D460292C5CDC5C10199029A10
:100D6000184681600271E16AC160E1690978016039
:100D7000616A8847A06A10B103A93CC93CC007B0AA
:100D8000F0BDD4D4BCB5EFF30380103844B2204694
:100D9000FFF778FCA00016490C58206AA2780325BA
:100DA0002A40022A03D1008A1249014000E0417919
:100DB0000191A06988B1606901A900F05DFEA07889
:100DC0002840616909186161A169081AA0610ED102
:100DD000606A60B10021012202E0606A38B1042239
:100DE000204602B0B0BC08BC9E46FFF7ABBFBCBDFE
:100DF000A0540020FF01000010B5EFF3038010386D
:100E000044B2A00009490858016A8A787B2313403C
:100E10008B70416A19B100210222FFF793FF20462F
:100E200010BC02BC8E46FFF72DBCC046A05400206B
:100E300070B5EFF30380103844B2A000124908588F
:100E4000036A817803220A40022A03D11A8A0F49D1
:100E5000114000E059791D7938222A40ED0605D568
:100E60001D7FED076D0EAD1840226A401D79C72623
:100E70002E401E71436A0BB1FFF764FF204670BC21
:100E800002BC8E46FFF7FEBBA0540020FF0100000D
:100E900070B514460D4606461046FFF73FFC204647
:100EA000FFF7F0FB20462946324670BC08BC9E4640
:100EB000FFF706BC80B500F002F8002080BD00F00E
:100EC00063BBD4D4022804D010B9064801210170B4
:100ED000704702480249FFF75FBCC046C454002077
:100EE0001036000090C07E4070B502460120D2B19D
:100EF000C9B1107F08B10E2070BD0B68032093B1FB
:100F00004C6884B12C2501261677002016605560A8
:100F10009360D4601061506190610B6993628B683B
:100F20001362C968516270BD10B5A0B1027FA2B151
:100F3000C2688369934212D20269836899548169B5
:100F4000491C8161C2680169491C0024914200D397
:100F50002146016108E0012406E0072404E0092499
:100F60000222214600F002F8204610BD1FB5036A98
:100F700053B1846A144207D002920191416A0091F0
:100F800080690390684698471FBD10B50124D8B109
:100F9000027F92B1C1B182698AB1426983689A5C69
:100FA0000A708169491E8161C2684169491C002437
:100FB000914200D32146416106E0072404E0242445
:100FC00004222146FFF7D2FF204610BD38B101466A
:100FD000007F30B1002008614861886170470120BE
:100FE000704707207047024601202AB1137F23B1C2
:100FF00011B19069086000207047072070470246D1
:1010000001203AB1137F33B121B19069D268101A2F
:101010000860002070470720704710B50124A0B178
:1010200099B1826962B1026902B9C268521E026155
:1010300083689A5C0A708169491E8161002404E01A
:10104000242404222146FFF791FF204610BD18B149
:1010500078210160002070470120704710B590B1E1
:10106000782912D104460A49782200F005FD20466D
:101070004830214610316060A160204610BC02BC9F
:101080008E4600F007B8012010BD032010BDC046F9
:1010900044360000F8B5032768B10446C06802264C
:1010A00038B1A5682DB1606818B1214610318D4264
:1010B00003D03046F8BD3846F8BD2022284600F05F
:1010C000CBFD0146252001B1F8BD1521615600294F
:1010D000FAD4172161560029F6D419216156002946
:1010E000F2D42088618881423846EDD0E868002833
:1010F000DFD128690028DCD1E86900283046E3D038
:101100002046F8BC02BC8E4600F000B8F0B585B0B1
:10111000032450B10546C26802263AB1A86828B136
:101120006F681FB15F498A4203D02646304605B03A
:10113000F0BD2B464833BB42F8D12A885A498A422F
:10114000F3D004936B888B42EFD00293019229462F
:1011500010312022039000F07FFD252108B10E46BA
:10116000E4E7009130223846049900F075FD08B19B
:10117000009EDBE7039A1079FF280099EFD0907961
:10118000FF28ECD0107AFF28E9D05079DF28E6D08C
:10119000D079DF28E3D0507ADF28E9D00398C769F7
:1011A000002FC3D078680028C0D00398C0680028FA
:1011B000BCD1039800690028B8D140F2051002990B
:1011C0008142B2D1401C019981422646AED1387885
:1011D0000028CDD178780128CAD1B8780028C7D1A5
:1011E000387A0F28C4D178892F498842C0D1387BFA
:1011F0000028BDD1B87BF97B09020818397C0904A5
:101200007A7C12065118081828498842B0D1B87C57
:101210000028ADD10020FFF7BFF91B2624498842E2
:1012200084D124480068244909684201520F914042
:101230004005400FC1402148814200D076E7172089
:101240002856072894DC15202856072890DC1920FA
:10125000285607288CDC1B202856072888DCA87D08
:10126000032885D8287D032882D8287E032800D922
:101270007EE7A87E032800D97AE7786801784029BC
:1012800000D075E74178890700D071E781780C2993
:10129000009E00D04AE7C678002E00D146E72526FA
:1012A00044E7C04694340000FFFF00000000FFFF49
:1012B000006CDC0220E001406454002000366E0126
:1012C00080B5A0B000201F901FA8FFF7C0FE18B97E
:1012D00001A87821FFF7C2FE20B080BD70B59EB096
:1012E0006C4640F205106080401C2080201D15498E
:1012F0002CC92CC02546103513492022284600F061
:10130000BBFB12480178427812025118827812040D
:10131000C0780006801840180C90204634300C49E4
:10132000142200F0A9FB264648360A4930223046EE
:1013300000F0A2FB029501962046FFF7ABFE1EB01F
:1013400070BDC046F4340000D434000000400020DA
:10135000C0340000CC5400201CB50479022C0FD0FE
:10136000042C17D1806801A90870C1B20A4818304E
:10137000082903D101A9FFF750FE1CBDFFF7D4FDDA
:10138000022C07D1044C606820B100F085FB0020DE
:10139000207060601CBDC0462C570020BCB50021E9
:1013A000CC43104A904206D101A8FF22027000915E
:1013B00000F01CF808B12046BCBD0B4D183569463D
:1013C0002846FFF710FE0028F5D100980028F6D037
:1013D00001A92846FFF7D9FD0028ECD101A804781F
:1013E000E9E7C046044000202C570020F8B5EFF391
:1013F0001085012080F310881B4F7978002609B1F1
:1014000030461BE0194A9168C1B11168B1B1516809
:10141000A1B138461830164C21462031FFF764FD43
:1014200060B93846443034342146FFF75DFD28B9B1
:101430000E4C07CC12680C3C904710B185F3108815
:10144000F8BD606840690B49884209D02068A168EE
:101450008C693B46083307490022A0470028EDD19C
:1014600001207870CCE7C0462C570020F4340000EF
:1014700004400020591300007CB505460020C643F7
:10148000104C1034A1421AD10190FFF7AFFFB0B950
:101490000D4E443601A93046FFF7B1FD01990143D5
:1014A00002D1204600F012F8E9B23046FFF73CFDC9
:1014B0000A2D2E4603D1204600F008F80A263046B1
:1014C0007CBDC046044000202C570020F8B5002405
:1014D000E7432A490A461032904201D088420CD193
:1014E00088420DD00094FFF781FF30B9244D443578
:1014F00069462846FFF777FD60B13C462046F8BDB7
:101500001F481830FFF762FD08B90446F6E70020CF
:10151000C443F3E7009E002EF0D0194C2078C0079A
:10152000FCD1304600F03EFB60600028E5D0002092
:101530000446B44209D240B911484068011928460E
:10154000FFF723FD641C009EF3E730B10C4C60688C
:1015500000F0A2FA00206060CFE709484168094A1C
:101560001068926893683246984700283C46C5D177
:101570000120034908700024C0E7C0460440002051
:101580002C570020F4340000FFF79AFE00B1FEE76C
:10159000FFF7A4FE00B1FEE7064800F0D3FB0648C3
:1015A0000468064D204600F091FB0146284600F0F5
:1015B000B7FBF7E7E0360000D4360000F236000053
:1015C000B0B5514343435918030C140C1D466543F1
:1015D000491992B2534380B24243150CEB181D0CCB
:1015E00049199BB260431818030CC918000492B241
:1015F0008018B0BDF0B587B01D4606460C9C00298A
:1016000015D00F46002A029201951BD00490002DA0
:101610003CD0284600F02AF90546384600F026F965
:10162000291A202961D3002C09D0C0C407E0002D5D
:101630004ED0002C03D00027C0C43846EEE0002076
:101640000746EBE0002D5AD0002869D0691E0D42F4
:1016500000D185E029460546084600F007F90690C6
:10166000384600F003F90699091A1F29DBD20094C5
:10167000481C2B46C3401F22511A2A463C468C4028
:101680001C430694C7408A40002347E0501E024294
:1016900053D00094104600F0E9F80446384600F0B4
:1016A000E5F8201A21300023202823D01D461F28CA
:1016B00065D8049C2146C1402022131A22463C468C
:1016C0009C400C430694C7409A4005972B4666E021
:1016D000054630461146164600F0F6F8002C2AD092
:1016E00000224643A91B06C425E00094481C0023A1
:1016F000202805D120200697059332464FE08DE043
:10170000049C1D462346C3401F22511A22463C46D4
:101710008C401C4306942B46C7408A4005973EE008
:101720003846294600F0D0F8002C04D0002245436A
:10173000791B22606160002770E0002C049B02D0BE
:101740000021184003C4012A304667D0002A6ED019
:10175000504210403C494143C80E3CA10B5C67E03D
:10176000002C02D0394026606160002D59D06842BB
:10177000284035494143C80E34A1085C52E0014677
:101780002039049E3246CA4040231B1A3C469C40E6
:101790001443CF409E4006970595334622460027C6
:1017A000039305460698C30F05994900CB18049288
:1017B000D10F420054180298211A06911A46019935
:1017C0008A410592DE43E24382184E41002E00D446
:1017D0000593284600D40694F40F03994A003E4628
:1017E0001643CA0F04994B009A18401E27463346E9
:1017F000D6D10120C14315460022881C5241F30F67
:1018000013406A009F187300009A002A03D0069DB7
:101810001560059D55600B401C432043394607B0B9
:10182000F0BD2020C740002138460F46F6E72023B0
:101830001F211A460A40049ED640994378008840EA
:101840003043DF40EAE7C04631B57C0700011C02A7
:101850001D0E18031E16140F191104081F1B0D1757
:10186000151310071A0C12060B050A0970B5102380
:101870000022010C194600D011464B40D840030409
:1018800008241B0E234600D013465C40E0400406AB
:101890000425240F2C4600D014466540E840050777
:1018A0000226AD0F354600D015462A467240D0407C
:1018B000321A40080126F6430643701C104059189E
:1018C00009194919081870BD012925D300D170479D
:1018D000884201D200207047024684465FA0013052
:1018E000130C8B4201D31A00A038130A8B4201D388
:1018F0001A00503813098B4201D31A002838930874
:101900008B4201D31A00143853088B4200D30A3893
:101910000200604600231047002080B500F0A5F8C3
:1019200080BDC04600BFCA07904200D3801A5B4109
:101930008A07904200D3801A5B414A07904200D345
:10194000801A5B410A07904200D3801A5B41CA06A5
:10195000904200D3801A5B418A06904200D3801ADD
:101960005B414A06904200D3801A5B410A069042CE
:1019700000D3801A5B41CA05904200D3801A5B41B4
:101980008A05904200D3801A5B414A05904200D3F9
:10199000801A5B410A05904200D3801A5B41CA0459
:1019A000904200D3801A5B418A04904200D3801A8F
:1019B0005B414A04904200D3801A5B410A04904282
:1019C00000D3801A5B41CA03904200D3801A5B4166
:1019D0008A03904200D3801A5B414A03904200D3AD
:1019E000801A5B410A03904200D3801A5B41CA020D
:1019F000904200D3801A5B418A02904200D3801A41
:101A00005B414A02904200D3801A5B410A02904235
:101A100000D3801A5B41CA01904200D3801A5B4117
:101A20008A01904200D3801A5B414A01904200D360
:101A3000801A5B410A01904200D3801A5B41CA00C0
:101A4000904200D3801A5B418A00904200D3801AF2
:101A50005B414A00904200D3801A5B410A009042E9
:101A600000D3801A5B4118467047704780B50A461C
:101A7000002100F00AF880BD10B500239A4203D07F
:101A8000CC5CC4545B1CF9E710BD00239A4202D021
:101A9000C1545B1CFAE7704710B5002831D00446EA
:101AA00000202060174800F0D5F817490868002882
:101AB00010D084420DD9021F1368C118A1420146FB
:101AC000F4D1211F0968C918116002680446104644
:101AD00004E00ED020600C60211F09686218824269
:101AE0000CD102682260001F00684018211F0860A6
:101AF00004E006490C2200F0E3F84250014800F0EF
:101B0000AAF810BDA85700209C570020080000002C
:101B1000F8B5061F306837180D4A1268002497423E
:101B200001D02046F8BD0D1A082D00D808252846FA
:101B300000F010F8B84205D0411CF2D020C0FFF7E9
:101B4000ABFFEEE73068401930600124E9E7C0469A
:101B5000A0570020F8B505460020C443002D1CD432
:101B60002846FEF7FBFD411C17D046190C4B1E60A2
:101B700001460B31072291430F1F874208D03D1ABF
:101B80002846FEF7EBFDB04207D14019044B186020
:101B90005868002800D15F603C462046F8BDC0462A
:101BA000A0570020F8B504461320C043844206D352
:101BB00027490C2200F084F84250002538E02248E2
:101BC00000F048F8E41D07208443264608361F4DE0
:101BD0002F462D68002D0DD0281F0168B14211D26B
:101BE00028680028F4D128463146FFF791FF0028E5
:101BF000EED012E03046FFF7ADFF0546401C19D08D
:101C000040C50CE0891B082907D32A68AA51AA19E4
:101C1000131F19603A60066001E0286838600A48BE
:101C200000F019F80420044328462146FFF71EFF60
:101C30002846F8BD06490C2200F042F842500248FE
:101C400000F009F8B9E7C046A85700209C570020CB
:101C5000080000007047704710B5002A07D00B78C5
:101C600004789C4205D1521E491C401CF5E7002017
:101C700010BDE01A10BDD4D410B504460449054A7D
:101C8000FFF7FAFE044820180449FFF7EFFE10BDE5
:101C90008C040000000000000000000004000000B0
:101CA0000249401A024908607047C0460800000017
:101CB000AC570020D4D4D4D4D4D4D4D4D4D4D4D411
:101CC0000148006870470000AC570020B0B50446DA
:101CD0008078C10705D104210843A0700020C043CB
:101CE000B0BD00252046294600F015F8002801D097
:101CF000401E04E0A16820468847002801D4C0B2F5
:101D0000B0BD401C01D0082000E00420A1780143B0
:101D1000A170E843B0BD0288018010467047D4D45A
:101D200083B018B5044603A80EC003AA0092044865
:101D30000068214600F02AF818BC02BC03B008472E
:101D4000D8360000F8B506460024E1430E48056881
:101D5000A878800701D40C4614E000916F683078B1
:101D6000002805D02946B847761C0028F7D504E09E
:101D70000A202946B847002804D5A8780421014341
:101D8000A970009C2046F8BDD8360000F0B5A1B07F
:101D9000034620920024E0439A78920701D400F091
:101DA000EFFC0F9018935868179020981F9019A86F
:101DB000821D0A92421E0D92401D12900120119028
:101DC000400210909348401C08900C911591159A70
:101DD0001078252807D00028189901D100F0D2FCEE
:101DE000521C159205E0911C5778252F08D11591AA
:101DF0001899179A9047641C0028E8D500F0BAFC9F
:101E00000E940024149416941394109A0B46A5B2C1
:101E10001F2D0FD838462738092828D8784400794C
:101E2000400087446D09090904095A09095802202C
:101E3000044344E07F2D0DD83846303809281CD89B
:101E4000402D42D220210C430A21169D694340189F
:101E5000169055E04C2F35D0682F45D06A2F31D0E1
:101E60007A2F4DD0742F4BD06C2F76D137E0202FA6
:101E700025D0232FE0D1102041E0242F45D07A2F08
:101E80003ED02E2F36D04C2F1CD0682F2CD06A2F4E
:101E900018D06C2F23D0742F32D02A2F5DD11398F5
:101EA00000282DD11F98011D1F910068002113915A
:101EB0003F2D0ED800284AD420210C43C8E72046E5
:101EC00004241CE01046803019E00A21149D694367
:101ED0004018149014E0012011E008200FE0A00049
:101EE0001040204380240AE06000104020431199F4
:101EF0000C0204E03F2D01D900F046FC40200443D1
:101F0000591C1F78002F26D080E7139800281499B9
:101F100017D01F4620981F90402D169A00D30A46CE
:101F20001FA90C9800F038FC1F98011D402D1F912F
:101F30000168084600D31698109A3B4688D314913E
:101F400086E700241698139016941494D8E7282155
:101F50000C4340427CE700270B46139A002A07D027
:101F600020981F901FA90C981D4600F015FC2B46C9
:101F70001499002901D540208443C8178143139147
:101F800020253A462A43104665380328159301D385
:101F9000612A27D11F98C11D0720814308460830B8
:101FA0001F90D71B03C9612A17D1FAB200926206AB
:101FB0000F9D00D5139D19AA2B4600F0CDFC401CA7
:101FC0001490C0B2854200DC451E0320C0020443C9
:101FD000702006900121169E5DE0149763061BD5C4
:101FE000139F1AE038466F38062830D8082300219E
:101FF0000B9140007844808840008744030106002C
:10200000F700F7001F01F700FE0010231C437820A3
:10201000F7E0C046E70300000627D3B2662B0B9714
:1020200009D0652A0FD10122120314437B1C002220
:102030006525069520E001256A0314436622069271
:1020400011233A4619E03B0612D03B4611E0692FB6
:1020500000D1B9E0642F00D1B6E0632F00D0C5E015
:102060001F98011D1F91006819AD28700127F5E028
:102070000123921E069200221546149F009501929C
:10208000DBB2112B00D3112319AA00F041FD1490EB
:102090000221169E0B9D0820C043199A824208DA3D
:1020A0006220C04382420DD2FB48824208D2042102
:1020B00009E0092A07DD632A04D9D0087D28F6D271
:1020C000032100E00221079119A801790020139053
:1020D000C807A0B208D11346A20708D4420709D402
:1020E00000220992012208E02D23099307E02B2208
:1020F000099203E020220992002213921A4609074E
:10210000890F04D01398002817D1042016E0A104E9
:10211000890F00D0DDE01346012D149900D8012568
:102120001491C9B200293CD0129A8A18521E127812
:10213000302A36D11499491EF2E703200025864241
:102140000FDD21070CD4861B0E9C20201899179AAE
:102150009047002800D50DE3641C761CF5D301E000
:10216000351A0E9C1398002807D109981899179AC8
:102170009047002800D5FDE2641C19A800790007EB
:10218000CE4E00D5CE4E3078002800D1DCE2C01B08
:10219000C0B21899179A9047641C761C0028F2D593
:1021A000E8E2C00600D529460320C0431A46834210
:1021B0001ADBAA4218DA0120400304438A4200DBFA
:1021C00086E0D0430D1884E0A0B22106079577D4AD
:1021D0001F990A1D1F920A68C10500D411E28005EB
:1021E00000D50DE212B20CE24D1E72E0782A00D04A
:1021F00054E18820C31B0B9704E0B24804400A2333
:1022000075200B902246B0480240200607950DD459
:102210001F98011D1F910068D5050021002D00D4D5
:1022200057E1950500D553E180B252E190051F9822
:102230003ED4011D1F91006800214AE11F98011D35
:102240001F9161060F9900D51399006800289F4DD2
:1022500000D00546284600F043FC074614952007A9
:10226000169814D4B842054618990E9C0BD33D46D7
:1022700009E006462020179A9047002800D579E209
:10228000701E641C1899B842F3D8284600E00E9CD2
:10229000E419C51B002F00D156E2149E307818991E
:1022A000179A9047761C14967F1E0028F2D561E29B
:1022B000C11D07208143084608301F9003C908E16B
:1022C00080051F9800D522E1011D1F91026898E149
:1022D0000025012041032140A6B2C3020029039238
:1022E000049103D11E4206D0052105E0D1178A438F
:1022F000511C0E9C03E003210E9C079A8918F206DC
:10230000002D0B950E92059301D06A1C00E0D20FB0
:10231000139B584013185B18169DED1A00DC00251E
:1023200009231E4210D1002D0ED0511808181699FD
:10233000451A20201899179A9047002800D519E2CD
:10234000641C6D1CF5D300251398002807D109984B
:102350001899179A9047002800D50BE2641C05983D
:10236000064210D030201899179A9047002800D5BF
:1023700000E27820C01BC0B21899179A9047002835
:1023800000D5F7E1A41C30070ED4002D18990CD00D
:102390002C193020179A9047002800D5EAE16D1ECD
:1023A0001899F6D1002500E018990498002829D141
:1023B00019A84079179A9047002800D5DAE10B98C0
:1023C000012862DB2E201899179A9047002800D523
:1023D000D0E10B980019801C16901498C4B200200C
:1023E0000B99814200D1A2E0461CA64202D20A9972
:1023F000085C00E030201899179A90470028304672
:10240000EED5B7E1039AD01711468143571A4A1CFB
:102410000B98404216901498C0B21490002A09D12B
:102420002E2018991646179A9047002800D5A1E14A
:102430003246641C3020002F04D414998F4201DAF4
:102440001298C05D561E16998E4208DD1899179A8B
:1024500090477F1C641C00283246DFD58AE118991A
:102460001646179A9047002800D583E1601C0E9904
:10247000002921D5012E1FD12E201899179A904797
:10248000002800D576E1A41C5EE10E98002818997A
:1024900045D4601C16904BE019FCFFFF25201899CD
:1024A000179A904700280E9C00D563E1384618998A
:1024B000179A9047A41C9FE4044645E1DC360000CF
:1024C000EE360000EFFF0000F9FF000002370000C9
:1024D000C0B22546AD4F3D4016272646BE4309965D
:1024E00007460F43002F00D0099208D019AF3A4693
:1024F00000F008FAC61B0B9F169B099D9DE0620623
:10250000F4D5149A012AF1DA00260B9F94E0C01D3D
:1025100007218843014608311F910CC872E02E2024
:10252000179A9047002800D524E1A01C169018990E
:102530000698C01BC0B2179A9047002800D519E131
:10254000039C002C01D42B2000E02D201899179A11
:102550009047002800D50DE1E0174440241A079861
:10256000042814D37D20C1002046FFF7ADF90646AC
:102570003030C0B21899179A9047002800D5F9E07A
:1025800008984643A41B1698C01C169004E01699A0
:10259000891C0328169130D1642620463146FFF766
:1025A00093F907463030C0B21899179A904700281F
:1025B00000D5DFE07E43A41B1698401C16900A2627
:1025C00020463146FFF780F907463030C0B21899EF
:1025D000179A9047002800D5CCE07E43A41B16989C
:1025E000401C16903034E0B21899179A9047002892
:1025F00000D5BFE01698441CA6E00228DFD2F1E720
:1026000052B2D317DD171946694010466840401B87
:10261000A941002B01D4264602E00125AE02264343
:102620001025AE431A43354600D19AE019AC0A236F
:10263000224600F067F9061B169B68060E9C0AD519
:1026400028465349084013998E4203DA002F04D0DC
:10265000054604E00546304602E011208543139804
:10266000102129401491AAB207D14A491F311140C3
:1026700015464A1E91412A4603E0002F119900D0C9
:1026800002210D1810070B921AD4D00707D09D42D3
:1026900004DAF018401B13901D4600E01396AB427D
:1026A00009930ADC099508E020201899179A9047A9
:1026B00000285FD46D1C641C169B9D42F4DB099DB1
:1026C0001498002815D133481F300B99014221D0AE
:1026D000880701D52B2007902E481930014201D0E0
:1026E0002D20079007981899179A9047002841D4F1
:1026F0000FE030201899179A904700283AD4002FFD
:1027000007D038461899179A9047002832D4A41C4D
:1027100000E0641C1698451BA419139FB74211DDF5
:1027200030201899179A9047641C7F1E1397002831
:1027300020D4F2E70D98805D1899179A9047761E7D
:10274000002817D4002EF5D1012D01DAFFF73FFB49
:1027500020201899179A9047641C6D1E0028F3D505
:1027600008E0620600D461E7149A012A00DB5DE705
:10277000002661E7189A90780421014391700F9820
:1027800021B0F0BD2046FBE70E98F9E7E9FF000015
:10279000FEFF0000E7030000F0B586B0009106469A
:1027A00001210190914200DBA8E03078252803D078
:1027B000761C0028F9D1A1E0B71C7478252C3E4680
:1027C000F3D003910292012148020590002504955F
:1027D00028463E46AFB21F2F09D82746203F102F6C
:1027E00007D80B46BB40464A134202D03FE07F2F3A
:1027F00009D82746303F092F12D8202215430A2234
:102800004243D01933E04C2C22D0682C29D06A2CBA
:102810001ED07A2C2BD0742C29D06C2C33D11AE0FA
:102820007A2C24D000272A2C29D02E2C27D04C2CCF
:102830000ED0682C15D06A2C0AD06C2C0BD0742CBE
:1028400015D0242C1FD1049A002A15D1049016E02B
:10285000059A80320AE0AA00059B1A402A43802587
:1028600004E06A00059B1A402A430D021543771CB9
:102870003478002CADD104E0039A90422ED0384633
:10288000F5E700243E46039904980028029A35D0C3
:10289000884287D12020204301466539032901D38E
:1028A00061280AD1009B1868C01D072188430830A1
:1028B000019E03991860491C74E7E0B2732813D095
:1028C000642C0FD0692C0DD0632C039901D02806FD
:1028D0000DD4009B1868001D019EEBE7632403994B
:1028E0000846D2E7280602D4009B186804E0A9B283
:1028F000009B18688905D7D4001DD9E706B0F0BD44
:1029000089280100F0B587B014460F461F260193B1
:102910001E40029600250590394632462B4600F0AF
:10292000EDF804900391324606952B46FEF748FEDB
:10293000059A101A092802D90199401A3730303007
:102940002070641C029E901B069887410498039F88
:10295000E1D2204607B0F0BDF0B587B01D46144661
:102960000E460746C90F11714248730006403A46A9
:10297000324300205B0D002A05D1002B03D1014614
:102980000746064615E0002B08D006913B498B42CE
:1029900007D1002A069966D0082065E03649491C0F
:1029A00007E0C143334AD243C9437F1A96413249B3
:1029B00059182160002D03D40C2D03D90D2537E0C3
:1029C000054635E0A90033200091421A0492022006
:1029D0000021019100F054F80A4641420591019B03
:1029E000194691410691401E03909A411946324082
:1029F00002920120049A00F043F8024603983840FE
:102A0000101A0846029B98410CD334200491009977
:102A10000392421A3846314600F04AF8039A049964
:102A2000C00701D0BF184E410598074006980640E0
:102A30000C980D2100291AD40F223A4001D1A94245
:102A40000BDC092A01D9121A2732631830325A7165
:102A5000A9420A4600DC2A4615463A093307D71828
:102A60003609491EE6E70420401820710025284653
:102A700007B0F0BDFFFF0F0001FCFFFFFF070000E4
:102A800010B5034690060BD4002A0DD091402020AB
:102A9000801A1C46C4400C4318469040234605E06B
:102AA000203A9340002001E018460B46194610BD1D
:102AB00010B50B4691060BD4002A0DD0D040202132
:102AC000891A1C468C400443D3401946234605E02E
:102AD000203AD340002101E019460346184610BDB4
:102AE00010B542180346002906D01C78002C02D0ED
:102AF000491E5B1CF7E71A46101A10BD40B584B09A
:102B000002AE0096FEF776FD029A039B04B040BD2C
:102B1000F0B5A3B00D920746F94A0E461640054699
:102B20003543CC0F4800400D002D0AD1002808D1B4
:102B300030200D99487100200860A01C0871012206
:102B400013E2F049884203D1002D6ED008206DE0D9
:102B5000079306940023D9436C1EA5410124022843
:102B60000A9400D31C462543D343C943791A3246FD
:102B70009A41E54C0319641C00285CD15DD100D05A
:102B80000F4628980890B80FB100081816903946DB
:102B90000A9801400391B80015900920C0430B909A
:102BA000002C149519944BD4204600F00DFB2146BF
:102BB0000446032900D9641E204600F011FB18903A
:102BC0001AAD2046294600F0A1FB149802901EA8D9
:102BD000019020A800901998201A189943187C3366
:102BE000384631462A4600F0F7F918900D46152C64
:102BF00026465AD8159C2046169F394600F0DCF927
:102C00008907800840180B99491D4143E14221463C
:102C1000079C62D10846394600F0EAFA0021B0422A
:102C2000149100D3A4E117916EE0042000190D99CE
:102C30000871002299E11C46A1D01646A0D1A0E758
:102C40006542284600F0C6FA611C00D0401E139071
:102C50002C1A204600F0C4FA18901AAD20462946D6
:102C600000F0E0FA149802901EA8019020A80090AD
:102C700013981899431A7D33384631462A4600F096
:102C8000ABF9139A0D46012A189013D8039800281F
:102C90000A98079C35D000212098401E209021984A
:102CA0001491884121900A982BE0002017901490ED
:102CB000079C29E03E2A079C21D800201490C0439D
:102CC0000146139AFFF7DCFE169A8A431599814351
:102CD0001143139A4842484113E00398002800D05A
:102CE00049E11498C043002740181699B94100F0F3
:102CF0007FFAB042179700D353E1149704E0002005
:102D0000149017901998161829980490089800287C
:102D100021460ED01898294600F044FA049AB118BA
:102D20000918D00F814200DB08468442214600DBAF
:102D300001460991059619951F9F1E9E2199209A7B
:102D400000201690159013900F9210460E9100F0EF
:102D50002BF904460D4630460C97394600F024F90D
:102D600007461294001B109108461195A84103D202
:102D700013983446189D11E0189D2846199900F0C3
:102D800011FA0999884234462ADD139A00290A98D3
:102D900004D12846199908430A9823D0139038463D
:102DA0000B9E704300194142414114980840149011
:102DB0001598C0B2414241411798084017902846E3
:102DC000199900F0F1F81991464371191591169966
:102DD000491C16913E46109F129A11991890B3E71C
:102DE000139A02E00020189019901392149BD807B0
:102DF0000B9E2BD00C9F2046394600F0D5F822467A
:102E0000044630466043D0421DD10D461598C0B2ED
:102E1000414241411798084017900F980E9900F0D1
:102E2000C3F80F900E91189F3846199900F0BCF81E
:102E3000199131464143C91915911699491C1691AA
:102E40002F461890D7E70C971446149B1598C0B2DC
:102E5000411F4A1E9141179AD207189F00D10A9923
:102E600000290A9900D13946139AD2070BD17C4028
:102E7000199A0C9E5640264305D1039D6A426A4129
:102E80001A40012A06D1042801D8002000E00120C0
:102E900001400A91059816990818159000210A9E7C
:102EA000B819199F18914F410446394600F07AF934
:102EB0000546002E2AD0099A954228DD0898002858
:102EC0000AD00498159908184019012800DC01203F
:102ED000079A824200DB0246954218DD164600231F
:102EE000601D5F410A223946FFF708FE324606465A
:102EF0000F466D1E1598401C1590189809E0C046A5
:102F0000FFFF0F00FF070000CBFBFFFF099A189897
:102F100026461997954200DB15462AB2141D1692D3
:102F200090421ADA0A2700251890304619993A4635
:102F30002B46FFF7E3FD1796064619913A462B46B6
:102F4000FEF73EFB169A1799081A302101430D9897
:102F500001551898641E401CE2E70D990698087107
:102F6000159800B28018401E0860104623B0F0BDCE
:102F700001201790C8E6022001430846169900F088
:102F800037F90021219F209C631E3A4617918A4100
:102F9000B04200D22346209300D23A46219217989D
:102FA00085E601201490AFE680B500F005F84A07E9
:102FB000C0088018C90880BDF8B502AA0092044A6A
:102FC000044B00F01FFA0399029804B080BDC0467C
:102FD000CDCCCCCCCCCCCCCCF0B593B006931646B3
:102FE0001268736810AC0094C40F49000C194500B6
:102FF0002846214600F006FA0A900B91B268F36861
:1030000011980D90109F0EA800902846214600F0C0
:10301000F9F900240F9A0E9B08935D1C099513463D
:103020006341C7190D9841411198109D0C977D1B64
:103030001F460D910D46854100D317460F9701D3CA
:1030400008980990099B0E9330680590706803906A
:10305000B068F168069A413A089200925A1C0492AC
:103060003A46624107920C9BC0180D9A5141029753
:103070000A9F059D7F190B9F039D7D41604105942B
:103080006141C51A0D46954101D3029A0792049AEF
:1030900000D3099A079B00F0EAF9189A03C219981D
:1030A00009901A98002827D090CE306875680F9B39
:1030B0000E9A089900910492511E07910693059A61
:1030C00093410C99081A0D99A941451E0E46964147
:1030D0000A9A141B0B9ABA4100D3054600D30E4638
:1030E0000C98401B0D98B041079A00D3049A00D366
:1030F000069B2846314647E030680390706804908C
:10310000B168F06802900F9B0E9C069840380090C2
:103110000C98C20F0D9F7D00AD1842000B9EF60F5C
:1031200092190792121A2A46BA4102D3059E3246D4
:1031300001E00122059E6700B818E40F5B001B192F
:103140000190401E06900593B3410798411A2F46FF
:10315000029887410291481E3946B1410A9EF20FFA
:103160000B9C6400A2187400039EA41B049CA24143
:1031700000D3394600D30298079A121A8D41069A55
:1031800000D3019A00D3059B00F071F9099A03C29C
:103190000F9B0E9A089800900C980D9900F067F913
:1031A00013B0F0BD70B50C46054600210A2001267B
:1031B0002A1A22468A4105D30A220023FEF700FA82
:1031C000761CF5E7304670BD01494143880C7047D5
:1031D0004134010001494143080D7047FB2E0B00AB
:1031E00002494143C80C401C7047C0464F9312002F
:1031F000F8B50022D443084E084F094D054A33461E
:10320000FEF7DEF9641C421B0A46BA41F6D320469B
:10321000F8BDC046CDCCCCCCCCCCCCCC33333333C6
:1032200034333333F0B58BB00C4605461A2631469D
:10323000FEF74AFB0101324A57184643B54208D10E
:10324000F868E060B868A0607868606038682060FE
:1032500054E0059408A80090A81BC100294A5058C2
:10326000039051184C68BA68FB68214600F0CAF810
:103270000490019106A800900CCF0398214600F01D
:10328000C1F8039002910021079F0698049A8018C4
:1032900004900198474108464841012805D1089803
:1032A000401C089009984841099028460191FFF771
:1032B00097FF04463046FFF793FF241A00940398C3
:1032C0000299049E32463B4600F0D1F82A0992004A
:1032D0000D4B9A582B07DB0EDA4003231340C0181E
:1032E000059D2860019841416960099B089A0094F6
:1032F0003046394600F0BBF8A860E9600BB0F0BD7D
:1033000010370000E0370000B0380000F0B58DB095
:103310000C46054619301A263146FEF7D5FA01014A
:10332000354A57184643AE4208D1F868E060B8689D
:10333000A06078686060386820605AE007940AA846
:103340000090701BC1002D4A5058049051184C68D1
:10335000BA68FB68214600F055F80590069108A868
:10336000009009CF0027421EBB410498214600F07F
:1033700049F80490039109990898059A80180590D6
:1033800006984141069138467841012805D10A98AE
:10339000401C0A900B9878410B903046FFF720FFB5
:1033A00004462846FFF71CFF201A0290009004985C
:1033B0000399059C2246069E334600F058F8C943FF
:1033C000C0432A0992000E4B9A582B07DB0EDA40B5
:1033D00003231340181A079D28608F416F600B9BD1
:1033E0000A9A029800902046314600F040F8A86002
:1033F000E9600DB0F0BDC04608390000E0370000BC
:10340000F8390000F0B585B0029316460D46024625
:1034100003900024304621462346FEF7D1F804905D
:103420000F46304621462A462346FEF7C9F80E4687
:10343000381801906641029F384621462A462346A5
:10344000FEF7BEF80D463618654138462146039A08
:103450002346FEF7B5F8019A121861410A987118CF
:103460000160654145600498114605B0F0BDF8B5AE
:1034700000931546069E3246FFF71AFB07460C4698
:103480004020821B28460099FFF7FAFA384321436F
:10349000F8BDD4D475080000910A0000B10A0000FC
:1034A0000D0B00004D0B0000710B0000AD0B000078
:1034B000D10B0000410C0000650C0000690C0000FD
:1034C00000010000004000200F00FFFF000000008E
:1034D000FFFF0000090200000204020502060207C5
:1034E0000000000000000000591300000000000070
:1034F000C0340000CC540020D434000094340000C8
:1035000000840000000000000084000001000000B2
:103510000084000002000000008400000C00000095
:10352000008400000D000000008400000E00000078
:10353000004400000F000000000C01040001000026
:10354000000C010401010000000C01040201000054
:10355000000C010403010000040C00000401000041
:10356000000C010008010000000C01050901000029
:10357000000C01050A010000040C00000B01000012
:10358000040C00000C0100000040000000020000DC
:10359000040C000006020000040C000007020000FA
:1035A000040C000008020000050400000C020000EA
:1035B000000C010000030000040C000001030000E7
:1035C000040C0000020300000004010700040000D6
:1035D00000040107010400000004000007040000CB
:1035E000104C000008040000040C00000904000056
:1035F000040C000000050000040C00000D09000090
:10360000040C00000E090000040C00000F0900006B
:103610002200000000350000000000000000000053
:103620001E1C1E1A090200000204020502060207FF
:10363000000000000000000000000000000000008A
:10364000BC36000006010501FC54002024360000B1
:103650009434000009020000020402050206020779
:10366000000000000000000000000000000000005A
:10367000BC36000040000C0000010000D036000005
:103680000F00FFFF00000000FFFF0000000000002F
:10369000000000000000000000000000000000002A
:1036A000000000000000000000000000000000001A
:1036B0000000000000000000000000000001000009
:1036C000D03600000F00FFFF00000000FFFF0000E9
:1036D00040000C000440002014400020696E660089
:1036E0000D53797374656D20496E69740D006E61B8
:1036F0006E00596F752074797065643A2025630DEA
:103700000A00286E756C6C2900D4D4D4D4D4D4D4D7
:103710000000000000000000000000000000001099
:103720000000000000000000B9340332B7F4AD140B
:1037300010DB1AB30892540E0D307D951447BA1A57
:1037400066088F4D26ADC66DF598BF85E2B7451169
:10375000CA96853D92BD1DEBFCA11860DCEF5216A8
:103760003C92AE220BB8C1B4839D2D5B0562DA1C7E
:10377000304C7E8F4E8BB25B16F4529F8B56A51247
:10378000FBD4827643ED8AF08FE7F931156519187D
:1037900050F19BD94A13EEB4284CF0A686C1251FE0
:1037A000035FC270CB9E4916E642889C44EB20140E
:1037B000B0650836AD6EA58585F0CA14E2FD031A22
:1037C0000B899979D5B13D09D8DA973A35EBCF1005
:1037D000AC363F5E73BB38CF3E6752FA44AFBA1582
:1037E00001000000000000000500000000000000D3
:1037F00019000000000000007D0000000000000033
:103800007102000000000000350C00000000000004
:10381000093D0000000000002D3101000000000003
:10382000E1F505000000000065CD1D00000000006E
:10383000F902950000000000DD0EE9020000000022
:10384000514A8D0E000000009573C2480000000030
:10385000E941CC6B010000008D49FD1A0700000012
:10386000C16FF28623000000C52EBCA2B10000008B
:10387000D9E9AC2D780300003D9160E458110000B7
:1038800031D6E275BC560000F52E6E4DAEB101008A
:10389000C9EA268367780800ED95C28F055A2A0089
:1038A000A1EDCCCE1BC2D30025A4000A8BCA2204F2
:1038B0000000000000000000000000000000000008
:1038C00000000040955969595555545515555556A0
:1038D0000405154110545540455155444045504448
:1038E0005055554500400040400444966555565596
:1038F00045404554514115405591555555554051F8
:1039000005010000D4D4D4D4010000000000000060
:103910000000000000000020345065C05FC9A652BE
:10392000BB13CBAEC440C21806C8DF7100D5A87C5B
:10393000F56F0FDA58FC27136E4756357D24206546
:1039400002C7E768E48CA41DE9E60268D7CD3961B7
:103950007977FCC2405BEF16798CDE43FFA751F903
:1039600091F3B278F5BDBE11E857E9D6E8BEE87B21
:10397000B054AC8F848D751BEA23A499E9F9D38BDD
:10398000B7A3714061DA3E15CEE33ECB73F9480828
:103990008C97B427D51B7010A2BFEFB9EB853215F9
:1039A0004DB44DB49BBB6F1996B6076CF8E7EEADFE
:1039B00036D9B4F59135AE13222218AF4E6A684D50
:1039C00091DAAA3D4F40741E9FBD9EE006A1C098AB
:1039D00057C2A7FDA40E90170E7D497173E3208F87
:1039E000B220D87605143B12853D7434811343B060
:1039F000AD297A5F27F4351C5445545445550504C8
:103A000000100410140440000000014055551541F9
:103A10005404000044000100000000404100004444
:103A20005044455054005555545565510040004090
:103A30000100000100050100115451515455550574
:103A40000015415000000440100104050000000072
:103A500000000506362E352E30004275696C742044
:103A6000776974682052656E65736173204164766E
:103A7000616E63656420466C657869626C6520538D
:103A80006F667477617265205061636B6167652052
:0E3A900076657273696F6E20362E352E30000B
:043AA000080000001A
:04000003000000B940
:00000001FF
