:1000000060140020A50000000D040000AF000000F7
:10001000AF000000AF000000AF000000AF00000024
:10002000000000000000000000000000AF00000021
:10003000AF00000000000000AF000000AF000000B3
:10004000A50C0000D50B00002D0D0000790D00005F
:1000500040003500481500200001000000000000AD
:100060000000000000000000481600200001000011
:10007000000000000000000000000000000001007F
:100080000000000025130000000000000000020036
:0C0090002F140000000000009914000074
:1000A0007047D4D400F006F800F0A0FEFEE700BED2
:1000B0007047D4D4B0B54EF60850CEF200004FF4DD
:1000C0007001C0F8801040F20001C0F20001016030
:1000D0000020002400F091FE00F0A2F8012000F0C2
:1000E0008CFE41F26000C2F2000080F30A8800201A
:1000F00000F052F800F07DF800F024F9032000F041
:1001000014FA40F61050C4F208004FF6FF7100BF19
:1001100020F814100134092CFAD1032000F0DCF986
:10012000032000F002FA0420C4F20E000021016056
:1001300041608160C160032000F0CEF9012000F031
:100140002BF841F2D074C2F20004204601F010FCFA
:10015000204601F021FC43F2A46043F2A461C0F206
:100160000000C0F20001081A8410012C09DB43F2E0
:10017000A465C0F2000500BF55F8040B8047013CA0
:10018000FAD1022000F039FE00F062F90020BDE84B
:10019000B040FFF785BFD4D4F0B581B042F6F87512
:1001A000C0F200052E68044676B16868071D00BFDE
:1001B0007879844204D157E90101091A01F0D9FA8A
:1001C000013E07F10C07F3D1AE6886B1E86800F193
:1001D000080500BF6879844205D155E90202296803
:1001E000121A01F0CAFA013E05F11005F2D101B070
:1001F000F0BD4EF22000C4F20100817941F260426C
:100200000068C2F2000252F82110C0F3026021FA25
:1002100000F041F27841C2F2000108607047D4D486
:100220002DE9F0414EF28044C4F201044CF2001575
:100230004AF20350C4F2010524F8820C0120A88080
:10024000A8880028FCD147F200010120C4F2000177
:1002500028808860086041F2604742F600504CF206
:10026000002C4EF22006C2F20007C0F2311041F21B
:1002700000214FF40042C0F6EB3CC4F20106C0F28C
:100280007A01002387E80F00C7E9042CB0793168B0
:1002900057F82000C1F3026141F27848C840C2F229
:1002A0000008C8F80000207810B9607880073CD0BA
:1002B000207840B901202070C820012100F076F894
:1002C00020780128FCD10020607020700020B075DB
:1002D000307FC007FCD041F2103030810020B07276
:1002E000307F8006FCD50120287741F22120C2F220
:1002F000001030600520B071B079316857F82000E7
:10030000C1F30261C840C8F8000042F20800C4F21C
:100310000000F121017100210170F02101714FF401
:10032000254024F8820CBDE8F0814FF47A7000F08B
:1003300001F8CBE7704741F26041C2F2000151F889
:1003400020007047B0B543F22404C4F2080400252D
:10035000C8200121257100F029F825702078002897
:10036000FCD1207840F00200207000BF2078800788
:10037000FCD4002004F8020C14F8020C0028FBD175
:100380000020012104F11C0212F8103003F07F0359
:1003900002F8103012F91030002BFBD4C9074FF0CF
:1003A00001004FF0000108BFB0BDEDE701FB00F018
:1003B00041F27841C2F2000109684CF6002348F688
:1003C0003812C3F69A33C0F24102B3FBF1F1904206
:1003D00007D24FF47A7200FB02F0B0FBF1F0800814
:1003E00008E08900B0FBF1F0904207D24FF47A7137
:1003F00000FB01F008B100F005B870474FF0FF3086
:1004000000F000B801380028FCD170472DE9F04118
:1004100046F22018C4F20008B8F80000B8F820101E
:1004200041F27C4501EA0006B7B20024C2F20005A1
:1004300027FA04F0C00704D055F8241009B120466B
:1004400088470134102CF3D1A8F81060BDE8F08182
:1004500070B584B048F248060320C4F2000600F0EC
:1004600064F86FF0FF0043F21C2430604FF0FF305F
:100470000021C0F200040122CDE9020034F811305D
:1004800002FA01F5002B01F1010118BFA84304296C
:10049000F4D14EF280320190002001A9CEF2000288
:1004A00051F8203006EB8005AB6242F82030013075
:1004B0000328F5D1032000F00FF846F200310020A8
:1004C000C4F2000134F810200AB141F820200130B4
:1004D0000428F7D104B070BD0122EFF3108182F33C
:1004E000108841F2D042C2F2000232F8103023B13B
:1004F00032F81030013B22F8103032F810208AB95F
:100500004EF2FE3CC4F2010C42F6E672BCF800303A
:10051000C0F2000232F8100043F4254222EA000043
:10052000ACF8000081F31088704780B50122EFF32A
:10053000108182F3108841F2D042C2F2000232F8F8
:1005400010308BB94EF2FE3C42F6E673C4F2010C59
:10055000C0F20003BCF800E033F8103043EA0E03A9
:1005600043F42543ACF8003032F81030013322F860
:10057000103081F3108880BD41F2DC41C2F20001ED
:100580000A681318B3F5805F0AD980B50848784423
:10059000016801F00DFA0C2242504FF0FF3080BD8F
:1005A00040F26000C2F2000010440B60704700BFD0
:1005B0000E31000080B545F25422C5F24F020260B0
:1005C000084600F003F8002080BDD4D470B504467E
:1005D00000F05CF841F2BC4CEFF31080012181F394
:1005E0001088C2F2000CDCF8001039B940F6035153
:1005F000C4F2080100220A7040220A70DCF80010E0
:100600000131CCF8001080F31088208810B340F638
:10061000000E0021C4F2080E606800EBC10292884F
:1006200050F83130100ADD03D2B20BD50EEB801535
:1006300055F8226026F4803645F8226023F480368F
:1006400045F822600EEB801040F8223020880131FE
:100650008142E1D3EFF31081012080F31088DCF8B0
:10066000000020B1DCF800000138CCF80000DCF814
:10067000000038B940F60350C4F2080000220270AE
:100680008022027081F3108870BDD4D42DE9F0412E
:1006900004460088B0B343F2640843F240070025E3
:1006A000C0F20008C4F20807002600BF606838F8EE
:1006B000162000EBC500818891421CD1006800F033
:1006C000B85117F91600B1F1807F07D1002812D474
:1006D00017F8160060F07F0007E000BFB0F1FF3FA1
:1006E00009DC17F8160000F07F0007F81600C82094
:1006F0000121FFF75BFE0136032ED7D1208801359B
:100700008542D1D3BDE8F0812DE9F0470246087853
:1007100048F20003C4F2110303EB00204B69967802
:1007200053628B694FF00008D36226F003035E1C0E
:1007300096704E78106282F80080D161C2F82880ED
:1007400016B943F00203937091F90B704EF2001C3E
:10075000CEF2000C07F01F044FF0010E0EFA04F663
:100760000CF1800478098D7A44F8206046F2003A52
:10077000BFF34F8FC4F2000ABFF36F8F5AF8270000
:1007800041F2C04920F480304AF827005AF8270087
:1007900028010CF54075E85591F90500C2F20009F1
:1007A00000F01F060EFA06F6430949F827200F79D4
:1007B00044F82360BFF34F8FBFF36F8F5AF8203098
:1007C00023F480334AF820305AF820303B012B5470
:1007D00049F8202091F907008B7900F01F060EFAE6
:1007E00006F6470944F82760BFF34F8FBFF36F8FBA
:1007F0005AF820601B0126F480364AF820605AF827
:1008000020602B5449F8202091F909000B7A00F060
:100810001F060EFA06F6470944F82760BFF34F8F0C
:10082000BFF36F8F5AF820401B0124F480344AF83C
:1008300020405AF820402B5449F82020EFF3108034
:100840008EF3108844F204050B78C4F208054FF0CB
:1008500000442E6824FA03F326EA03032B602B6876
:1008600080F31088106A80F80280106A80F8048093
:10087000106A80F80980106A80F80A80106A80F88F
:100880000B80106AA0F81A8008780EFA00F340F284
:100890000120034202D0136A4024DC74136A062448
:1008A0001C770B780EFA03F3034203D0106A4FF45F
:1008B00078438382C8784E788B78C00040EA031072
:1008C0002EB1032E08BF40F04000F22600E0E226E1
:1008D000136A02271870106A00258671C869037BA5
:1008E00007EA4307082B136A08BF0A275F73166AD3
:1008F0004378877835720678156A06F0FE06022E70
:100900004FEAC31667F3451609D1FF236B700078D1
:100910000228106A08BF46F01006C67116E0EE7194
:100920004068136A87785F7047781E7807F003077E
:1009300006F0FC0637441F70C7789F74DF79007893
:1009400007F0A30700F05C003844D8710020D36999
:10095000C2E90300C2E90500C86993F905300178CE
:100960005AF82370012627F480374AF823705AF882
:10097000237003F01F0706FA07F70CF5C0755B0933
:10098000BFF35F8F45F823704CF82370D36993F958
:100990000B305AF8237027F480374AF823705AF83E
:1009A000237003F01F0706FA07F75B09BFF35F8F99
:1009B00045F823704CF82370D36993F907305AF83F
:1009C000237027F480374AF823705AF8237003F015
:1009D0001F0706FA07F75B09BFF35F8F45F823701F
:1009E0004CF82370D36993F909305AF8237027F42F
:1009F00080374AF823705AF8237003F01F0706FA6D
:100A000007F75B09BFF35F8F45F823704CF823703D
:100A10001C23176A63F39F01B970408944F655118E
:100A20001081C5F2433100205160BDE8F0870346D4
:100A30000020C3E90512704780B5D0F820E09EF889
:100A400002C00CF07B038EF80230837803F00303BE
:100A5000A2EB030C0B44026AC0E9033C937843F019
:100A600080039370827802F00302022A05D109887C
:100A7000006A41F47E41C18102E00978006AC170D8
:100A8000002080BD80B5026A4FF0000E92F802C0CF
:100A90000CF00B039370036A8A78C0F80CE05A706C
:100AA00091F801E01A780EF0030E02F0FC02724495
:100AB0001A70CA780CF07B0C9A74DA79097802F013
:100AC000A30201F05C011144D971016A002081F890
:100AD00002C080BD4FF0FF3200200A604A607047BC
:100AE0008A0701D4062206E0026A937803F07B03AA
:100AF000937000220261C9071CBF00228261104668
:100B000070478446C0E909130020CCF82C207047B8
:100B1000026A002141609170C1694EF2801C91F916
:100B20000520012102F01F0301FA03F35209CEF25E
:100B3000000C4CF82230BFF34F8FBFF36F8FC269A8
:100B400092F90B2002F01F0301FA03F352094CF84B
:100B50002230BFF34F8FBFF36F8FC26992F9072026
:100B600002F01F0301FA03F352094CF82230BFF3DD
:100B70004F8FBFF36F8FC26992F9092002F01F03F4
:100B800001FA03F352094CF82230BFF34F8FBFF341
:100B90006F8FEFF3108281F31088C06944F2040371
:100BA0000078C4F208034FF0004C19682CFA00F0EA
:100BB00008431860186882F31088002070470246C6
:100BC000806908600021002091617047062070470D
:100BD00006207047EFF303804FF0704101EB006097
:100BE00046F200318015C4F20001425822F48032EE
:100BF0004250415841F2C041C2F200010858C16957
:100C00000A690169C2B9C1B1817801F00302C16802
:100C1000022A05D10988026A41F47E41D18102E0AD
:100C20000978026AD1708178026901F00303D11A50
:100C3000C26801611A44C26071B9016A8A7802F01F
:100C40007B0204328A70416A00294FF00001C160C2
:100C500002D0802200F001B870472DE9F04385B042
:100C60008146806A0DF1040830B1054695E8D80048
:100C7000C4468CE8D80000E04046D9F81C30D9F8CA
:100C800024701B78D9F82C6003600271C0E9021649
:100C9000B847D9F8280010B198E88E008EC005B08A
:100CA000BDE8F08310B582B0EFF303804FF07041E0
:100CB00001EB006046F200318015C4F20001425899
:100CC00022F480324250415841F2C041C2F2000148
:100CD0000C58A07800F00302206A022A03D1018A8E
:100CE0006FF35F2100E04179A069019198B16069DB
:100CF00001A900F042FDA0786169A26900F003003B
:100D00000144101A6161A0610ED1606A60B1204691
:100D10000021012203E0606A30B12046042202B0C3
:100D2000BDE81040FFF799BF02B010BD10B54FF0FD
:100D30007041EFF3038001EB006141F2C04288157E
:100D4000C2F2000210580C16026A937803F07B037B
:100D50009370426A1AB100210222FFF77EFF46F229
:100D60000030C4F2000050F8241021F4803140F823
:100D7000241050F8240010BD4FF07041EFF30380B1
:100D800001EB006C41F2C0414FEAAC50C2F20001ED
:100D900008588178036A01F00301022903D1198AF6
:100DA0006FF35F2100E0597910B51A79D40602F08B
:100DB000380204D51C7F64F3861282F040021C794D
:100DC00004F0C7041C71436A4FEA2C640BB1FFF7AF
:100DD00044FF46F20030C4F2000050F8241021F421
:100DE000803140F8241050F8240010BD80B500F088
:100DF00002F8002080BD00F0B9BB022818BF704780
:100E000041F2E04043F21021C2F20000C0F20001C2
:100E1000FFF7D0BB4FF0010238B331B3027F0AB104
:100E20000E2222E00A68DAB180B5D1F804E0BEF102
:100E3000000F17D02C23C0E90132D1E90223096940
:100E40004FF0010CC0E908230022C0F800C0C0F830
:100E50000CE08162C0E90422826180F81CC002E0DB
:100E6000032202E00322BDE880401046704710B51F
:100E700084B0A8B1027FAAB1C36882699A4213D232
:100E8000826803690024D154D0E9031283690132D6
:100E90008A4203F1010128BF22460261816114E008
:100EA000012412E0072410E0016A69B190F82830AB
:100EB00009249B0709D5406ACDE900040220CDE949
:100EC00002026846884700E00924204604B010BDAD
:100ED00010B584B0A0B1027FA2B189B18269AAB174
:100EE000826843690024D25C0A70D0E90512C368A5
:100EF0000131013A994228BF2146C0E9051202E0BA
:100F0000012400E00724204604B010BD016A71B13D
:100F100090F8282024245207F5D5406ACDE9000432
:100F2000042002900020039068468847EBE72424C1
:100F3000E9E748B10146007F00280FBF07200020E5
:100F4000C1E90400886170470120704730B1027F19
:100F500032B119B1806908600020704701207047E4
:100F60000720704740B1027F42B129B1C268806951
:100F7000101A086000207047012070470720704752
:100F800010B584B04FF0010470B169B1826972B1DB
:100F9000026902B9C268013A836802619A5C00245E
:100FA0000A70816901398161204604B010BD016A6F
:100FB00071B190F8282024245207F5D5406ACDE974
:100FC0000004042002900020039068468847EBE765
:100FD0002424E9E700280FBF0120782101600020C8
:100FE0007047B8B178291CBF0320704710B543F291
:100FF0004421C0F200017822044600F0BEFB04F157
:10100000100104F148022046C4E90121BDE8104066
:1010100000F002B801207047B0B518B30446C068AC
:1010200038B1A5682DB1606818B104F110018D4286
:1010300001D00220B0BD2846202200F08BFC08B170
:101040002520B0BD94F915000028F9D494F91700B3
:101050000028F5D494F919000028F1D4608821887B
:10106000884201D10320B0BDE8680028E1D1286999
:101070000028DED1E8690028DBD02046BDE8B0407A
:1010800000F000B888B12DE9F0470446C06890B17F
:10109000A56885B1666876B143F26C01C0F20001C3
:1010A000884204D00320BDE8F0870320704704F194
:1010B0004807B74202D00220BDE8F087B4F800909C
:1010C0004FF6FF78C145EDD0B4F802A0C245E9D093
:1010D00004F110012846202200F03CFC28B93046DB
:1010E0003946302200F036FC10B12520BDE8F087EB
:1010F0002879FF28F9D0A879FF28F6D0287AFF2888
:10110000F3D06879DF28F0D0E879DF28EDD0687A6D
:10111000DF28EAD0EE69002ECDD070680028CAD052
:10112000E8680028C7D128690028C4D140F20A40E5
:1011300082454FF00300B6D140F20B41894518BFFC
:10114000BDE8F08730780028CFD170780128CCD165
:10115000B0780028C9D1307A0F28C6D170894045AF
:10116000C3D1307B0028C0D1D6F80E0010F5803FE7
:10117000BBD1B07C0028B8D10020FFF7DCF842F6E4
:101180000051C0F2311188424DD14EF22000C4F21C
:10119000010041F278410068C2F200010968C0F321
:1011A00002629140C0F3023021FA00F04EF20011C9
:1011B000C0F2F551884236D194F9170003283FF761
:1011C00094AF94F9150003283FF78FAF94F91900F5
:1011D00003283FF78AAF94F91B0003283FF785AF38
:1011E000A07D0F283FF681AF207D0F283FF67DAF11
:1011F000207E0F283FF679AFA07E0F283FF675AF0F
:1012000070680178402904BF41785FEA81717FF4FA
:101210006CAF817835297FF468AFC078002818BF9B
:101220002520BDE8F0871B20BDE8F08780B5A0B081
:1012300000201F901FA8FFF7CDFE18B901A8782144
:10124000FFF7CFFE20B080BD2DE9F0419EB040F207
:101250000B40C0F20A4043F2CC020090C0F2000200
:10126000684692E80A4000F1040C8CE80A4043F218
:10127000AC0EC0F2000E00F1100CBEE83600634662
:1012800036C39EE8360000F1340E36C340F200014A
:10129000C2F20001096843F298020C91C0F2000208
:1012A00092E87A0041F2E8488EE87A00C2F200083B
:1012B00000F1480EB8E8F6007346F6C398E8F60069
:1012C000F6C3CDE901ECFFF7A7FE1EB0BDE8F08143
:1012D00010B582B00179022910D0042920D180688C
:1012E000C1B28DF8070041F248700829C2F200002F
:1012F00014D10DF10701FFF743FE11E041F27474C0
:10130000C2F20004206858B100F048FA41F2787146
:101310000020C2F200012060087001E0FFF7A7FD85
:1013200002B010BD40F22C01C2F2000188421CBF85
:101330004FF0FF307047B0B582B0FF208DF8070046
:101340000020009000F020F818B14FF0FF3002B0FC
:10135000B0BD41F24874C2F200046D4620462946F1
:10136000FFF7F4FD0028F0D100980028F6D041F2F4
:101370004870C2F200000DF10701FFF7A9FD002837
:10138000E3D19DF80700E2E770B541F2A875EFF3ED
:101390001084012080F31088C2F20005287808B17B
:1013A000002027E043F2CC06C0F20006B068002817
:1013B0004FF001001ED03168E1B17168D1B141F246
:1013C000487040F20401C2F20000C2F20001FFF7CF
:1013D00021FD78B941F27C7040F21801C2F20000A0
:1013E000C2F20001FFF716FD20B996E80700126867
:1013F000904710B184F3108870BD706841F2D1211C
:101400004069C0F2000188420ED0B16830688E6930
:1014100041F2D12141F2AC73C0F20001C2F20003EB
:101420000022B0470028E5D101202870B8E710B5A8
:1014300082B040F23C02C2F20002914205D1044661
:1014400000200190FFF7A0FF20B14FF0FF342046AD
:1014500002B010BD41F27C70C2F2000001A9FFF79A
:1014600081FD0199084305D140F23C00C2F2000021
:1014700000F012F841F27C70E1B2C2F20000FFF716
:10148000F6FC0A2CE3D140F23C00C2F2000000F06E
:1014900003F80A24DBE7D4D440F23C01C2F2000195
:1014A000884240F22C01C2F200011EBF88424FF078
:1014B000FF307047F0B581B088420FD00020009017
:1014C000FFF762FF38B941F27C70C2F20000694652
:1014D000FFF73CFD70B14FF0FF3009E041F248707A
:1014E000C2F20000FFF725FD002818BF4FF0FF30C3
:1014F00001B0F0BD0098B0B341F27875C2F20005BA
:1015000029780029FCD100F0CDF941F27476C2F2BD
:10151000000600283060DED041F27C740127C2F260
:10152000000400BF30683844411E2046FFF7D0FC5D
:10153000009A974203D2002807F10107F2D028B1A0
:10154000306800F02BF900203060C4E743F2CC0093
:10155000C0F20000816800688B68316898470028F5
:10156000B9D1012028700020C2E7D4D4FFF75EFE75
:1015700008B100BFFEE7FFF767FE00B1FEE743F2E8
:10158000E020C0F2000000F051FA43F2D420C0F293
:101590000000046843F2F225C0F20005204600F086
:1015A0000DFA0146284600F02FFAF7E72DE9F0473B
:1015B000DDF820E0844681B1CAB153B3B1FA81F4B9
:1015C000B3FA83F52C1B202C47D3BEF1000F18BFB4
:1015D000CEE900C14FF0000CB6E09BB30021BEF194
:1015E000000F18BFCEE900C14FF0000CADE0002B9A
:1015F00078D0002877D05C1E234200F09880B1FAA2
:1016000081F4B3FA83F52C1B1F2CDED204F1010CFC
:101610002EE0541E224271D0B1FA81F7B2FA82F65E
:10162000F71B07F1210CBCF1200F1BD0BCF11F0FE1
:1016300000F28E80CCF1200620FA0CF401FA06F5B7
:1016400025431CE0B0FBF2FCBEF1000F1EBF0CFBFB
:1016500012000021CEE9000176E004F1010CBCF19A
:10166000200F05D14FF0000A4FF0200C0D4609E085
:10167000C4F11F0620FA0CF501FA06F4254321FAFD
:101680000CFAB0404FF000084FF000094FEA4A044E
:1016900044EAD5776C0044EAD076B51A67EB030AC2
:1016A000F443F943A4184FEA400059415CBFBA46DD
:1016B000354640EAD87049EA4808CF0FBCF1010C22
:1016C000B946E3D14FEAD871BEF1000F41EA4001BB
:1016D0004FEA480020F0010018BFCEE9005A07EB9E
:1016E000000C32E031E0B1FBF3FCBEF1000F1EBF95
:1016F0000CFB13100021CEE9001025E0BEF1000F15
:101700001EBF00230440CEE90043012A1DD092FAF7
:10171000A2F24F00B2FA82F202F01F03D140D84089
:101720001F23934307FA03F343EA000C0DE0BEF1D5
:10173000000F1CBF04EA0100CEE900C093FAA3F039
:10174000B0FA80F021FA00FC00216046BDE8F08785
:10175000CCF14006ACF120044FF0000A01FA06F784
:1017600020FA04F52F4300FA06F821FA04F538466A
:101770008AE70A46002100F009B810B500239A4212
:1017800003D0CC5CC4540133F9E710BD00239A4266
:1017900008BF7047C1540133F9E7D4D410B5C8B1BC
:1017A000044600202060194800F0D2F81849086863
:1017B00090B184420FD950F8042C8118A1420146FF
:1017C000F5D154F8041C04461144026840F8041C86
:1017D000104605E010BD0ED020600C6054F8041CCB
:1017E000621882420CD1026850F8040C226008444E
:1017F00044F8040C04E007490C2200F0D9F84250E8
:101800000248BDE8104000F0A4B800BFC81700208F
:10181000BC1700200800000070B504460D4A54F8BB
:10182000040D2618126896420DD10D1A082D98BF86
:101830000825284600F010F8B04206D0411C1CBF15
:1018400020C0FFF7ABFF002070BD20682844206057
:10185000012070BDC0170020F8B5002814D404463C
:10186000FEF78AFE411C0FD000F10B010C4E21F057
:10187000070107190C1F844237600BD0251A284630
:10188000FEF77AFEB84203D04FF0FF342046F8BD91
:101890002844306070680028F8D17460F6E700BF13
:1018A000C0170020F8B510F1140F06D327490C22F9
:1018B00000F07EF842500020F8BD0446214800F0B8
:1018C00047F8E01D204C20F0070606F108052746E2
:1018D00024686CB154F8040CA84211D22068002886
:1018E000F5D120462946FFF797FF0028EFD013E0F7
:1018F0002846FFF7B1FF0446013019D020C40DE09F
:10190000401B082808D3216861516119396041F8EA
:10191000040C44F8045C01E020683860094800F0D9
:1019200018F846F004012046FFF723FF2046F8BDD3
:1019300006490C2200F03CF84250024800F009F839
:10194000B9E700BFC8170020BC170020080000003E
:101950007047704710B53AB10B7804789C4205D1B6
:10196000013A01310130F6E7002010BDE01A10BD48
:1019700010B505490446054AFFF7FFFE044805492E
:101980002044FFF7F6FE10BD9C00000000000000A0
:1019900000000000040000000249401A02490860EB
:1019A000704700BF08000000CC170020D4D4D4D466
:1019B0000148006870470000CC17002010B50446AD
:1019C0008078C10705D140F00400A0704FF0FF30CF
:1019D00010BD0021D4E85F0FC4E8521F002AF9D1DE
:1019E00008B1013805E0A16820468847B0F1FF3F03
:1019F00001DDC0B210BD01304FF0080008BF042067
:101A0000A1780843E1E7D4D483B018B5044603A80D
:101A10000EC003AA214604480092006800F028F88E
:101A2000BDE8184003B07047D832000070B50546D5
:101A30000E480468A078800714D56668287828B115
:101A40002146B04701350028F8D507E00A20214695
:101A5000B047B0F1FF3FC4BF002070BDA07840F098
:101A60000400A0704FF0FF3070BD00BFD8320000FE
:101A70002DE9F04F95B0824680781492800740F1AE
:101A80008B84DAF8040000270C90149813900DA8AA
:101A9000821D0692421E05300892099007910B9113
:101AA0000B9A114611F8010B252803D0002800F0ED
:101AB000758404E05578961C252D09D131460C9A81
:101AC0000B915146904701370028E9D500F05EBCE4
:101AD00000224FF0000800244FF0000B1FFA8BF992
:101AE000B9F11F0F0DD8A5F1270009282DD8DFE87F
:101AF00000F09F0B0B0B050B650B0B624BF0020B01
:101B000053E0B9F17F0F12D8A5F13000092823D88E
:101B1000B9F1400F27BF08EB880100EB410804EB47
:101B2000840100EB410438BF4BF0200B80E04C2DCA
:101B30003ED0682D45D06A2D3AD07A2D18BF742D2D
:101B400076D06C2D40F0538242E0202D2DD0232DF5
:101B5000DAD14BF0100B6BE0242D47D07A2D67D0F3
:101B60002E2D3CD04C2D23D0682D2AD06A2D1FD08D
:101B70006C2D2DD0742D5BD02A2D40F03882002A98
:101B800056D11398011D13910068B9F13F0F4DD83C
:101B9000B0F1FF3FDDBF4BF0280B444200224BF079
:101BA000200BC4BF0022044642E04BF0040B3FE090
:101BB0004BF4207B3CE04BF0010B39E04BF0080B81
:101BC00036E00BF480704BEA400040F4807B2FE05D
:101BD0000BF080004BEA800040F0800B28E0B9F168
:101BE0003F0F00F2DB834BF0400B21E0BAB11498B9
:101BF000154642461390B9F1400F38BF2246079868
:101C000013A900F0D5FB13982A46B9F1400F00F153
:101C100004011391006834BF0446804608E0224660
:101C20004FF0000800244FF0000B01E00022804636
:101C300016F8015B002D7FF451AF0A94002534465D
:101C40002AB114981390079813A900F0B1FB45F03E
:101C5000200028EAE879B8F1000FA0F1650148BF3B
:101C60002BF0400B03290B9401D3612835D1139934
:101C7000461B073121F00701612801F10802139288
:101C800091ED000B18D15FEA4B6058BF4FF0FF3960
:101C9000F2B20DA8494600F073FC00F101084BF4C4
:101CA000C05B4FF0010C5FFA88F08145D8BFA0F10E
:101CB00001097020049041E05FEA4B6158BF4FF08A
:101CC0000609C1B266291ED0652824D165204BF4CF
:101CD000805B09F10101002324E0A5F16F010629D1
:101CE00057D808234FF0000EDFE811F0E00107009D
:101CF000DA01DA019F01DA0197014BF0100B102392
:101D00004FF0780ED2E166204BF4005B0122049084
:101D100011214B4608E05FEA0961494608BF0121ED
:101D20000023023804900022C9B2112928BF1121D2
:101D30000DA800F0E1FC80464FF0020C0D9B13F162
:101D4000090F08DA13F1630F0FD213F57A7F09D860
:101D50004FF0040C0BE0092B09DD632B05D9B3F51B
:101D60007A7FF5D24FF0030C01E04FF0020C9DF8A2
:101D700038101FFA8BF4C80707D15FEA8B7206D4BC
:101D800062071DD4002001251CE02D2019E02B2026
:101D900017E0692D18BF642D40F02B811FFA8BF0DE
:101DA0005FEA0B6100F1308113990A1D13920A68F2
:101DB000C10540F13081800554BF12B252B22AE110
:101DC0002020002511F00C0F18D00423002D18BF7F
:101DD00003230A9A9A4226DD5FEA0B7125D49C1AE6
:101DE000A846054600F0B9FB002800F1CF82013774
:101DF0000134F7D328460024454617E01BF4405F22
:101E0000039543D1B9F1010F98BF4FF001095FFA73
:101E100088F139B3099A0A4412F8012C302A21D1E9
:101E2000A8F10108F3E7002400E0D41A2DB900F06E
:101E3000A4FB002800F1AA8201379DF83800DFF8E2
:101E40006C550007DFF8600558BF05462878002864
:101E500000F08F82801B00F08CFB013701350028D9
:101E6000F4D593E2E20648BF494613F1040F0BDBB9
:101E70004B4509DA8B424BF4005BAEBF4FF00009D3
:101E8000DA4301EB020901E0A1F101091FFA8BF12C
:101E90005FEA8B42B6464FEA015B0591029307D495
:101EA0000521BBF1000F58BF032101EB0C0602E036
:101EB00023EAE3714E1C09F10101B9F1000F059D00
:101EC00008BFC5F30011039A0A9C82F001028B1827
:101ED0003344E41A4FF00003D8BF1C4615F0090F35
:101EE000CDF804C011D184B1054688190A9910446F
:101EF0007646441A00F031FB002800F14782013792
:101F00000134F7D30024284600E07646039929B926
:101F100000F033FB002800F139820137BBF1000FDC
:101F20000CD500F022FB002800F13082C6F17800C9
:101F300000F01FFB002800F12982023705980007F6
:101F400009D444B1274400F010FB002800F11E82A0
:101F5000013CF8D100240598800426D49DF839006E
:101F600051460C9A9047002800F11082B9F1010FF8
:101F7000C0F2DA8000F0F5FA002800F1078209EBE0
:101F800007005FFA88F500F1020B0020814500F0A0
:101F9000A681471CAF423ABF0699085C302000F08A
:101FA000ECFA00283846F1D5F0E10298C9F10009B1
:101FB0005FFA88F820EAE076851B701C05D100F0F6
:101FC000D0FA002800F1E28101373020002D03D43F
:101FD0004545BCBF0998405D51464E454CDD0C9AC5
:101FE000904701350137013E0028E6D5CEE10A943D
:101FF00025E6632D54D113980126011D1391006825
:102000008DF834000DAD22E08005139800F1A48016
:10201000011D13910268D317A6E04FF6EF700BEA8B
:10202000000B0A234FF0750E40E01398011D139129
:102030000568DC48002D08BF05465FEA4B6058BFC5
:102040004FF0FF392846494600F040FB06465FEA5C
:102050000B7070D40A98B046B04238BF8046B04288
:102060006BD90C9A0446202051469047002800F175
:102070008D81601E0137F2E70C9A9047002800F12D
:102080008581781C0599C90640F11481002E40F025
:10209000118100F066FA002800F17881023768E1CA
:1020A000782840F00981C5F18803AE464FF6F970F3
:1020B0000BEA00055FEA0B600AD41398011D139127
:1020C0000068E9050AD5A90554BF80B2C0B205E091
:1020D000A805139804D4011D13910068002107E09E
:1020E000073020F007010A46496852F8080B13929E
:1020F00050EA010208BF2BF0160508D00DAE744659
:10210000324600F0FFF9861BAC46254646E05FEA02
:102110004B62F3D5B8F1010FF0DA4FF6E9700BEA34
:10212000000C0026754639E00598C00600F1D18004
:1021300007F1010BD3E0DDF828803744A8EB060453
:10214000002E00F0168115F8010B51460C9A9047AD
:10215000013E0028F4D519E1073020F007000146C0
:10216000436851F8082B13915846002B48BF40F4A0
:10217000806020F0100C82EAE37083EAE371B0EB38
:10218000E37061EBE3711A4300F08A800DAC0A231F
:102190006646224600F0B6F9B446061B5FEA4C607C
:1021A00002D4614630460BE04FF6FE700CEA0001A7
:1021B00030464E4504DA4846002D08BF2CF0110188
:1021C0001FFA81FBC90606D440F2064111EA0B0151
:1021D00018BF012103E00221002D08BF01210C18C6
:1021E0005FEA0B701CD45FEACB7001D10A9907E05B
:1021F0000A99B1468C42BEBF7018A0EB04090C4688
:10220000A046A142C8BF88460A98844207DA00F077
:10221000A4F9002800F1BA8001340137F4E74446FC
:102220005FEACB6014D440F206401BEA000F1FD0D7
:102230005FEA8B704FF02B0058BF20205FEA4B51B4
:1022400048BF2D2000F099F9002800F19F800EE092
:1022500000F08BF9002800F1998045B10C9A2846CE
:1022600051469047002800F19180023700E0013785
:102270000A983744041BB1450FDD00F076F90137A9
:10228000A9F101090028F6D580E0089851460C9A7A
:10229000805D9047013E002878D4002E69D0F4E795
:1022A0005FEA4B627FF572AFB8F1010FBFF66EAF18
:1022B000002673E707465CE00C9A252051469047BC
:1022C000002863D40C9A2846514690470237FFF7FE
:1022D000FBBB00F046F9002858D407F1020B049824
:1022E00051460C9A801BC0B2904700284ED4029EE3
:1022F0002B205146002E48BF2D200C9A9047002ECF
:1023000000D57642002841D40198042812D34FF416
:102310007A700C9AB6FBF0F5514605F13000C0B268
:102320009047002832D44FF47A7005FB10610BF10E
:10233000030504E00BF102053146032823D1642094
:1023400000F002F9002821D46420013506FB107149
:102350000A2000F0F9F8002818D406EB86000135B1
:10236000A7EB400101F1300000F003F900280DD483
:102370006F1C012CFFF694AB00F0EFF80137013C25
:102380000028F6D502E00228E2D2EBE79AF8020034
:1023900040F004008AF802004FF0FF37384615B0CD
:1023A000BDE8F08F02330000DC320000EE320000A6
:1023B0002DE9F043894652494FF001084FF0010CD6
:1023C0000546944580F299802B4613F8014B252C45
:1023D00003D01D46002CF7D18FE0AF1C6B783D4633
:1023E000252BF1D000264FF0000E00251F2E08D817
:1023F000A3F12004102C06D808FA04F40C4202D0F1
:1024000042E07F2E0AD8A3F13004092C13D805EB43
:10241000850346F0200604EB430535E04C2B23D022
:10242000682B24D06A2B1FD07A2B18BF742B2BD08B
:102430006C2B34D122E07A2B26D02A2B18BF2E2BDE
:1024400001D1002520E04C2B0ED0682B0FD06A2B39
:102450000AD06C2B12D0742B16D0242B1FD1BEF1B6
:10246000000F16D1AE46ECE746F420760CE006F4F9
:10247000807346EA430343F4807605E006F0800368
:1024800046EA830343F0800617F8013B002BADD1E9
:1024900004E06545D5D16323E64600E000233D46D0
:1024A000BEF1000F29D0E6457FF48BAF43F0200446
:1024B000A4F16505032D01D3612C06D1D9F80030B4
:1024C000073323F00703083312E0DCB2732C0CD07F
:1024D000642B18BF692B06D1330606D5D9F8003016
:1024E000B405EDD403E0632BF6D1D9F80030043302
:1024F000C9F800300CF1010C62E7BDE8F08300BFC1
:10250000892801002DE9F04103F01F069846144682
:102510000F460546284639463246002300F0E2F8C9
:1025200000FB1652A2EB0803092A88BF03F1370209
:10253000303204F8012BAA1B054677F100020F4642
:10254000E8D22046BDE8F0810C9AB1FBF0F60F46C8
:1025500006F130005146C0B210470C9A2020514677
:1025600010470C9A2E20514610470C9A30205146A5
:1025700010470C9AC0B2514610470C9A514610476A
:102580002DE9FE4F56EC107B0C460546F00F9046A9
:102590002871C6F30A516FF31F5657EA060208BFA7
:1025A00000290ED089B140F2FF7399420FD1082162
:1025B000002A08BF04210024084428712046BDE8F1
:1025C000FE8F00200027002605E02E4803E0A1F240
:1025D000FF3006F58016002C286003D40C2C03D99C
:1025E0000D2436E0002434E03320A0EB84090220DF
:1025F00000214A464FF0000A00F046F8424202929B
:102600006AEB0102B0F1010B61F100000192304070
:102610000090012000214A4600F036F8814607EA82
:102620000B00B9EB00008A46009871EB000008D35C
:10263000A000C0F134023846314600F036F8C00739
:1026400003D017EB090746EB0A06029807400198EA
:1026500006401220411FB1D417F00F0201D1A14250
:102660000ADCA2EB0803092A88BF03F127023032F3
:102670002A54A142C8BF0C46390941EA06773609F7
:102680000138E7E702FCFFFF930641BFA2F12001FA
:1026900000FA01F10020704732B1C2F120039140ED
:1026A00020FA03F3194390407047930641BFA2F10B
:1026B000200021FA00F00021704732B1C2F120035E
:1026C000D04001FA03F31843D140704710B54218C7
:1026D000034629B11C7814B101390133F9E71A46D0
:1026E000101A10BD40B584B002AE0096FEF75EFF32
:1026F000029A039B04B040BD2DE9F04F9DB088467F
:1027000051EC106B93460D46CF0F6FF31F55C1F37D
:102710000A5156EA050408BF00290BD040F2FF72A7
:1027200091420FD10821002C08BF042139440171C6
:102730000024FCE130210124417100210160B91C19
:102740000171F4E1002CCDE90970069318BF012452
:102750000022A1F23547022938BF0122002918BF03
:1027600005F580154FEA850343EA967044EA0209AD
:1027700013904FEA860004BF4FF6CC37CFF6FF77B1
:10278000129006F00100002F0490CDF81480CDF8CF
:102790002CB0CDF83C9041D4384600F0D1FACA466E
:1027A0008146032F88BFA9F10109484600F0D4FAF9
:1027B00014A90446484600F057FB18A81AA9CDF8FA
:1027C00008A0CDE90010A9EB0700204414AA00F1ED
:1027D0007C033046294600F0C7F90546B9F1150FCC
:1027E000109100F29380129E139C3046214600F017
:1027F000ADF9820842EA817120F0030008444042AA
:10280000F04261D13046214600F0AEFA00210F912E
:1028100048454FF0000028BF012039E0C7F1000A09
:10282000504600F093FA0446781C18BF013CAAEB0E
:10283000040A504600F090FA0DF1500883465046C5
:10284000414600F0ABFA18A81AA94246CDF8089004
:10285000CDE90010A4EB0B0000F17D0330462946C2
:1028600000F082F904EB07090546012C109111D8FC
:10287000DDF81480DDF82CB0049840B1DDE91A01D0
:1028800001381A9061F100001B9000200F90012088
:1028900011903EE0DDF814803E2CDDF82CB035D8E8
:1028A0004FF0FF304FF0FF312246FFF7EDFE139A55
:1028B00022EA0101129A22EA00000843B0FA80F0ED
:1028C00040091190002023E0049870B90F98C0438C
:1028D000801964F1000100F047FA00211191484588
:1028E0004FF0000028BF012012E046F00200214610
:1028F00000F03AFADDE91A124B1E62F10004484575
:1029000038BF0B461A9338BF14461B940020119011
:102910000F904046BBF1000F0ED01099284600F0F2
:10292000EFF9069A09EB02010844B0EBD27FB8BF79
:10293000D00F8045B8BF4046CDF820900DF160091A
:102940001B9CAB4699E8400300250C900020CDE984
:10295000120048462146CDF8389000F0EEF8814646
:102960008A4630464146CDF8348000F0E6F8074606
:10297000B0EB0900884671EB0A000ED31099584657
:1029800000F0BEF90C99884221DD08462946012550
:1029900018B9109850EA0B001DD01099584600F055
:1029A000CCF8109154461299119A00F0BCF907EB3B
:1029B00087010F9AC6EB41013E46B1FA81F1834689
:1029C00049090A4013990F9201311391C1E7DDF8CB
:1029D00040805F4603E000274FF000080D46DDF819
:1029E0003C90DDF828A007955FEAC97024D00D9DC2
:1029F000BB463046294600F0A0F8074600EB8000B1
:102A000040422A460D467142B1EB400F16D10E9856
:102A1000214600F092F80E900C465846414600F0D0
:102A20008CF888461299119A3E4600F07CF9139969
:102A3000834601311391DCE7454602E045465F4697
:102A40000D920898139901EB00081298C0B2411F2B
:102A500018BF0121DDF82CB0079AD2070CD10D9BCD
:102A600087EA06026B401A4306D1049A82F00102FB
:102A700002EA0902012A5ED1119A82F00102114391
:102A800000223943042888BF012201EA02043F19C9
:102A900045F100093846494600F032F906460CB3C4
:102AA0000C9886421FDDBBF1000F0AD00698404407
:102AB00081190129D8BF012105988842B8BF014674
:102AC000084686420FDD0446781D49F100010A22BE
:102AD0000023FFF707FE013E08F1010807462046E4
:102AE000894600E00C988642B8BF304604B2002503
:102AF000261DA54212DA384649460A220023FFF76E
:102B0000F1FD894600EB80010135A7EB4101074645
:102B100041F030010AF80610013EEAE709988AF808
:102B200004000FFA88F020440138CAF8000020465B
:102B30001DB0BDE8F08F0124A9E780B500F006F8CC
:102B4000C00840EA4170C90880BDD4D4F8B502AAD3
:102B50000092044A4FF0CC3300F011FADDE9020193
:102B600004B080BDCDCCCCCC2DE9F04F8BB004931C
:102B70001646D2E9002308AC0094490041EAD0741B
:102B800045002846214600F0FAF9D6E9022381469D
:102B9000DDE9087806A88B4600902846214600F01B
:102BA000EEF910EB070A48EB0108DDE90601DDE963
:102BB0000823471C41F10005BAEB020278EB03023F
:102BC00028BF0D46079528BF07460499D6E902405D
:102BD0004139D6E900CE7A1C45F1000314EB0A0412
:102BE0000591009140EB080119EB0C00CDF80C9019
:102BF0005BEB0E00069754F1000041F10001B0EBD1
:102C00000A04D94671EB080424BF2B463A4600F06B
:102C1000D2F9149AC2E90001DDE915B008B3D6E98A
:102C20000201D6E900C3DDE905640096BAEB0006AF
:102C3000039A68EB0107701E67F10001B2EB0C020A
:102C4000079D79EB030224BF30463946621E65F1C9
:102C50000003BAEB000678EB010624BF22462B46A0
:102C600040E0049C0025D6E900E0CC46403CDDE98C
:102C7000062302904FEA4C0CD6E902014FEA4A06BD
:102C800000944FEA480446EAD97644EADA74B6EB8F
:102C90000A0774EB080738BF012545EA42055B00C7
:102CA00043EAD2776A1E049567F10003039DB6EBF1
:102CB000000964EB010BB9F101006BF10001DEEBDF
:102CC000450E4CEAD57C029D7CEB050528BF594694
:102CD000DDF854B028BF4846351A8C41049C24BF07
:102CE00022463B4600F067F9CBE9000105AB4146BF
:102CF0000DCB0090504600F05EF90BB0BDE8F08FB0
:102D000070B500230A2401220A25461B71EB030635
:102D100007D3A5FB045603EB8303013206EB430301
:102D2000F3E7104670BDC9B2B1FA81F149090A4012
:102D300000EB80011192ABEB410112917047D4D4AA
:102D400001494843800C7047413401000149484320
:102D5000000D7047FB2E0B0002494843012101EB97
:102D6000D04070474F931200F0B50A4B02460A4D0F
:102D70004FF0FF304FF0CC34A2FB0367013002FB71
:102D8000047201FB0321721B71F133323246F3D31B
:102D9000F0BD00BFCDCCCCCC343333332DE9F04F74
:102DA00087B08B461A21B0FBF1F2054602FB01F613
:102DB0002A4800EB0210B54202D100F0C9F849E000
:102DC00004A9274A0091A91BC36852F8317002EB8D
:102DD000C101D0E901924C680168019100F0ACF8A2
:102DE000824602A8019A88460090384621464B4602
:102DF00000F0C5F801918146DDE90212002011EBD7
:102E00000A0758EB020840F10000012801D100F048
:102E100097F82846FFF7A0FF04463046FFF79CFFCF
:102E20000199241A48463A464346009400F0C3F8F4
:102E30001E226FF0030302EA450203EA9503094DDF
:102E4000EB5800F08DF800F093F8009400F0B3F820
:102E5000CBE9020107B0BDE8F08F00BF10330000DE
:102E6000E0330000B03400002DE9F04F87B08B460E
:102E7000054619301A21B0FBF1F22C4802FB01F68D
:102E800000EB0210AE4202D100F062F84BE004A960
:102E9000274A0091711BD0E900A852F8317002EB6B
:102EA000C101D0E902234C6800F046F8019002A865
:102EB000BAF1010268F100038946009000F03CF885
:102EC0008A46DDE9013104460020039ACF1852EB0F
:102ED000090840F10000012801D100F031F8304626
:102EE000FFF73AFF06462846FFF736FF361A204618
:102EF00051463A464346009600F05DF86FF00303F2
:102F00000C4C03EA95031E2202EA4502E35800F046
:102F100027F8013041F1000100F02AF8009600F096
:102F20004AF8CBE9020107B0BDE8F08F0835000090
:102F3000E0330000F83500003846214600F01FB8A5
:102F4000DDE904010130049041F100000590704773
:102F500090E80E00C0688BE80E00CBF80C007047BC
:102F600023FA02F202F00302801841F100017047D7
:102F7000DDE90423CBE90001384641467047F0B54E
:102F8000A3FB0145DDF814C0A2FB0116A2FB00273C
:102F90007F18744145F1000539462646E3FB0016CB
:102FA000A3FB0003C01954EB030045F10000CCE97A
:102FB00000601046F0BD2DE9F041DDF8188017469D
:102FC0000C460546C8F1400238461946FFF75CFB3F
:102FD00007460E46284621464246FFF766FB384321
:102FE0003143BDE8F081010002000800100020001C
:102FF000600000206000002003000000103000008E
:10300000030000003430000001000000F02F000039
:103010006000002060000020000000037814002001
:10302000D017002000000003D0170020D417002084
:103030000000000300000020000000200000000845
:1030400000000203000000204C000020500000009F
:1030500000000103D0170020D01700209C000000C2
:1030600000000103020403040404D4D4090700008F
:103070002F0A0000390A0000850A0000D50A000066
:10308000E10A0000030B0000110B0000BF0B000061
:10309000CD0B0000D10B000000010000000000205B
:1030A0000F00FFFF00000000FFFF00000002000013
:1030B0000C000C010C020C030000000000000000DA
:1030C000D11200000000000098300000E814002039
:1030D000AC3000006C3000000080000000000000F8
:1030E00000800000010000000080000002000000DD
:1030F00000800000030000000080000004000000C9
:1031000000000000050000000000000006000000B4
:103110000000000008000000008000000D0000001A
:10312000000000000E000000000000000F00000082
:10313000000C010700010000000C01070101000064
:10314000000C010402010000000000000501000065
:103150000000000006010000000000000701000060
:10316000000C010008010000000C0105090100002D
:10317000000C01050A010000000000000B01000026
:10318000000000000D01000000000000050200002A
:10319000040C010006020000040C010007020000FC
:1031A0000000000008020000000C01000003000005
:1031B00000000000010300000040000004030000C4
:1031C000050C000000040000050C000001040000D4
:1031D00000000000020400000000000003040000E2
:1031E00000000000070400000000000008040000C8
:1031F0000000000009040000000C01040A040000A3
:10320000000C01040B040000000000000005000099
:1032100027000000D830000000000000800181017C
:1032200082018301000200000C000C010C020C035F
:10323000000000000000000000000000000000008E
:10324000BC3200000B040A041815002024320000D0
:103250006C300000000200000C000C010C020C039A
:10326000000000000000000000000000000000005E
:10327000BC3200004000350000010000D0320000E8
:103280000F00FFFF00000000FFFF00000000000033
:10329000000000000000000000000000000000002E
:1032A000000000000000000000000000000000001E
:1032B000000000000000000000000000000100000D
:1032C000D03200000F00FFFF00000000FFFF0000F1
:1032D000400035002C0000203C000020696E660094
:1032E0000D53797374656D20496E69740D006E61BC
:1032F0006E00596F752074797065643A2025630DEE
:103300000A00286E756C6C2900D4D4D4D4D4D4D4DB
:10331000000000000000000000000000000000109D
:103320000000000000000000B9340332B7F4AD140F
:1033300010DB1AB30892540E0D307D951447BA1A5B
:1033400066088F4D26ADC66DF598BF85E2B745116D
:10335000CA96853D92BD1DEBFCA11860DCEF5216AC
:103360003C92AE220BB8C1B4839D2D5B0562DA1C82
:10337000304C7E8F4E8BB25B16F4529F8B56A5124B
:10338000FBD4827643ED8AF08FE7F9311565191881
:1033900050F19BD94A13EEB4284CF0A686C1251FE4
:1033A000035FC270CB9E4916E642889C44EB201412
:1033B000B0650836AD6EA58585F0CA14E2FD031A26
:1033C0000B899979D5B13D09D8DA973A35EBCF1009
:1033D000AC363F5E73BB38CF3E6752FA44AFBA1586
:1033E00001000000000000000500000000000000D7
:1033F00019000000000000007D0000000000000037
:103400007102000000000000350C00000000000008
:10341000093D0000000000002D3101000000000007
:10342000E1F505000000000065CD1D000000000072
:10343000F902950000000000DD0EE9020000000026
:10344000514A8D0E000000009573C2480000000034
:10345000E941CC6B010000008D49FD1A0700000016
:10346000C16FF28623000000C52EBCA2B10000008F
:10347000D9E9AC2D780300003D9160E458110000BB
:1034800031D6E275BC560000F52E6E4DAEB101008E
:10349000C9EA268367780800ED95C28F055A2A008D
:1034A000A1EDCCCE1BC2D30025A4000A8BCA2204F6
:1034B000000000000000000000000000000000000C
:1034C00000000040955969595555545515555556A4
:1034D000040515411054554045515544404550444C
:1034E000505555450040004040044496655556559A
:1034F00045404554514115405591555555554051FC
:1035000005010000D4D4D4D4010000000000000064
:103510000000000000000020345065C05FC9A652C2
:10352000BB13CBAEC440C21806C8DF7100D5A87C5F
:10353000F56F0FDA58FC27136E4756357D2420654A
:1035400002C7E768E48CA41DE9E60268D7CD3961BB
:103550007977FCC2405BEF16798CDE43FFA751F907
:1035600091F3B278F5BDBE11E857E9D6E8BEE87B25
:10357000B054AC8F848D751BEA23A499E9F9D38BE1
:10358000B7A3714061DA3E15CEE33ECB73F948082C
:103590008C97B427D51B7010A2BFEFB9EB853215FD
:1035A0004DB44DB49BBB6F1996B6076CF8E7EEAD02
:1035B00036D9B4F59135AE13222218AF4E6A684D54
:1035C00091DAAA3D4F40741E9FBD9EE006A1C098AF
:1035D00057C2A7FDA40E90170E7D497173E3208F8B
:1035E000B220D87605143B12853D7434811343B064
:1035F000AD297A5F27F4351C5445545445550504CC
:1036000000100410140440000000014055551541FD
:103610005404000044000100000000404100004448
:103620005044455054005555545565510040004094
:103630000100000100050100115451515455550578
:103640000015415000000440100104050000000076
:1036500000000506362E352E30004275696C742048
:10366000776974682052656E657361732041647672
:10367000616E63656420466C657869626C65205391
:103680006F667477617265205061636B6167652056
:0E36900076657273696F6E20362E352E30000F
:0436A000080000001E
:020000040100F9
:04A10000FFFFFFFF5F
:04A20000FFFDFFFF60
:04000003000000A554
:00000001FF
