:020000040200F8
:1000000060180622B9040002310A0002C30400028B
:10001000C3040002C3040002C3040002C3040002BC
:10002000000000000000000000000000C304000207
:10003000C304000200000000C3040002C304000265
:10004000EF1200020912000275130002C71300022A
:1000500040060000641906220001000000000000B4
:100060000000000000000000641A062200010000E9
:10007000000000000000000000000000000001007F
:1000800000000000A91900020000000000000200AA
:10009000BF1A000200000000291B0002000000003F
:1000A000000000004C0006224C00062254000622EC
:1000B000540006225C0006225C0006226400062230
:1000C000640006226C0006226C00062274000622E0
:1000D000740006227C0006227C0006228400062290
:1000E000840006228C0006228C0006229400062240
:1000F000940006229C0006229C000622A4000622F0
:10010000A4000622AC000622AC000622B40006229F
:10011000B4000622BC000622BC000622C40006224F
:10012000C4000622CC000622CC000622D4000622FF
:10013000D4000622DC000622DC000622E4000622AF
:10014000E4000622EC000622EC000622F40006225F
:10015000F4000622FC000622FC000622040106220E
:10016000040106220C0106220C01062214010622BB
:10017000140106221C0106221C010622240106226B
:10018000240106222C0106222C010622340106221B
:10019000340106223C0106223C01062244010622CB
:1001A000440106224C0106224C010622540106227B
:1001B000540106225C0106225C010622640106222B
:1001C000640106226C0106226C01062274010622DB
:1001D000740106227C0106227C010622840106228B
:1001E000840106228C0106228C010622940106223B
:1001F000940106229C0106229C010622A4010622EB
:10020000A4010622AC010622AC010622B40106229A
:10021000B4010622BC010622BC010622C40106224A
:10022000C4010622CC010622CC010622D4010622FA
:10023000D4010622DC010622DC010622E4010622AA
:10024000E4010622EC010622EC010622F40106225A
:10025000F4010622FC010622FC0106220402062209
:10026000040206220C0206220C02062214020622B6
:10027000140206221C0206221C0206222402062266
:10028000240206222C0206222C0206223402062216
:10029000340206223C0206223C02062244020622C6
:1002A000440206224C0206224C0206225402062276
:1002B000540206225C0206225C0206226402062226
:1002C000640206226C0206226C02062274020622D6
:1002D000740206227C0206227C0206228402062286
:1002E000840206228C0206228C0206229402062236
:1002F000940206229C0206229C020622A4020622E6
:10030000A4020622AC020622AC020622B402062295
:10031000B4020622BC020622BC020622C402062245
:10032000C4020622CC020622CC020622D4020622F5
:10033000D4020622DC020622DC020622E4020622A5
:10034000E4020622EC020622EC020622F402062255
:10035000F4020622FC020622FC0206220403062204
:10036000040306220C0306220C03062214030622B1
:10037000140306221C0306221C0306222403062261
:10038000240306222C0306222C0306223403062211
:10039000340306223C0306223C03062244030622C1
:1003A000440306224C0306224C0306225403062271
:1003B000540306225C0306225C0306226403062221
:1003C000640306226C0306226C03062274030622D1
:1003D000740306227C0306227C0306228403062281
:1003E000840306228C0306228C0306229403062231
:1003F000940306229C0306229C030622A4030622E1
:10040000A4030622AC030622AC030622B403062290
:10041000B4030622BC030622BC030622C403062240
:10042000C4030622CC030622CC030622D4030622F0
:10043000D4030622DC030622DC030622E4030622A0
:10044000E4030622EC030622EC030622F403062250
:10045000F4030622FC030622FC03062204040622FF
:10046000040406220C0406220C04062214040622AC
:10047000140406221C0406221C040622240406225C
:10048000240406222C0406222C040622340406220C
:10049000340406223C0406223C04062244040622BC
:0C04A0004404062200000200FFFFFFFFE2
:1004B0007047D4D4D4D4D4D400F006F800F0FBFFB5
:1004C000FEE700BE7047D4D470B54EF6005540F23A
:1004D0000120CEF20005C0F20E004EF20006686167
:1004E000CEF20106BFF34F8FBFF36F8F29683368D9
:1004F000C1F3035043F0040301285FEA1F92336005
:1005000011F00F0F5FEA0F91BFF34F8FBFF36F8FA3
:1005100011420DD101280BD84EF20800CEF2000096
:10052000016841F480310160BFF34F8FBFF36F8FDB
:100530004FF4700040F20001C5F888000020C0F2BE
:100540000021A960002400F0BDFF00F025F94EF263
:10055000FA304EF6B022C4F20100C4F201024AF2AF
:100560000251018014704FF425410180012000F0F8
:10057000A9FF41F26040C2F2062080F30A88306889
:10058000800721D5A868B0F1007F1DD130694FF4F4
:100590000071C0F3C300726901FA00F3C2F3C30033
:1005A00081400020DA08CB080146064642F005C02B
:1005B000E6E802010FF005C04FF0005243F005C01D
:1005C000E2E802010FF005C0002000F05DF800F045
:1005D0008BF800F0A5F9032000F08DFA4FF00A0E19
:1005E00040F63050C4F2400020F8044B0FF005C034
:1005F000032000F059FA032000F07DFA44F20400D1
:100600000026C4F22000066046608660C6600320B3
:1006100000F04AFA012000F037F841F61444C2F223
:100620000624204602F0FBF9204602F010FABFF340
:100630004F8F45F2BC4045F2BC41BFF36F8FC5F808
:100640005062C0F20020C0F20021BFF34F8F081AA1
:10065000BFF36F8F8410012C0BDB45F2BC45C0F259
:10066000002500BF00BF00BF55F8040B8047013CC8
:10067000FAD1022000F026FF00F002FA0020BDE8C7
:100680007040FFF715BFD4D4F0B581B044F6B4453F
:100690000446C0F200252E6876B16868071D00BFC9
:1006A0007879844204D157E90101091A01F00BFC61
:1006B000013E07F10C07F3D1AE6896B1E86800F18E
:1006C000080500BF00BF00BF6879844205D155E925
:1006D00002022968121A01F0FBFB013E05F1100528
:1006E000F2D101B0F0BDD4D44EF22401C4F2010124
:1006F0008878097801F00F02A2F1080103293BD89C
:10070000DFE801F0022C101E41F66001C2F2062162
:1007100051F820004AF6AB21CAF6AA21A0FB01013C
:10072000480830E041F66001C2F2062151F820008D
:100730004AF6AB21CAF6AA21A0FB0101C80822E0B3
:1007400041F66001C2F2062151F820004AF6AB21C1
:10075000CAF6AA21A0FB0101080914E041F66001D4
:10076000C2F2062151F820004AF6AB21CAF6AA21AE
:10077000A0FB0101880806E041F66001C2F20621F3
:1007800051F82000D04041F68C01C2F206210860E9
:100790007047D4D4D4D4D4D42DE9F04381B04EF2F0
:1007A000FA394CF20016C4F20109C4F201064AF209
:1007B00001504AF20158CFF6FF700230A9F800004C
:1007C0000120B08000BF00BFB08808B12FF005C085
:1007D0004BA0012131804EF6004790ED001F41F6FD
:1007E000600042F60021C2F20620C4F20107C1F205
:1007F00075514FF4004280ED001FC0E90421C0E9AB
:100800000711FFF771FF387810B97878800772D038
:10081000387840B901203870C820012100F0C5F8AF
:1008200038780128FCD10020787038704EF220070B
:100830000020C4F20107B875387FC007FCD044F22D
:100840001170388140F21110B8850020B87200BFD5
:10085000387F8006FCD548F698150220C9F68A052F
:1008600030773D60082038710526BE71FFF73CFFE8
:100870009620012100F099F800243C713D60FFF7BB
:1008800033FF9620012100F090F8BE71FFF72CFF96
:1008900042F200004FF42541C4F20000A0F80080AD
:1008A000BFF35F8F0472BFF35F8F018097F835004D
:1008B00040F0400087F8350097F93500B0F1FF3F70
:1008C000FADC022087F83400C02087F8350097F85A
:1008D000350000F0BF0087F8350000BF00BF00BF43
:1008E00097F935000028FBD44FF42540A9F8000003
:1008F00001B0BDE8F0834FF47A7000F009F895E795
:10090000002D310100127A0000800000000000007C
:10091000704741F66001C2F2062151F8200070478D
:10092000B0B542F22404C820C4F2200401210025FD
:10093000257100F03AF82570207808B12FF005C035
:10094000207840F00200207020788007FCD400203E
:1009500004F8020C00BF00BF14F8020C08B12FF01D
:1009600005C84FF0030E002004F11C0100BF00BFBA
:1009700011F8102002F07F0201F8102000BF00BF24
:1009800011F91020002AFBD401300FF00FC801200C
:1009900000F0B1F84EF64C410120C4F201010022F2
:1009A0000A70BDE8B04000F07FB841F68C0241F219
:1009B0000023C2F20622C0F27A03484312689A4228
:1009C0000FD344F23F21C0F20F0111444DF6836270
:1009D000C4F21B32A1FB0212910CA0FB0101C9B1B0
:1009E0001BE04CF60021C3F69A31B1FBF2F148F658
:1009F0003812C0F24102904205D24FF47A7250434D
:100A0000B0FBF1F006E0B0FBF1F0904205D24FF4FC
:100A10007A71484328B100F007B84FF0FF3000F07A
:100A200003B87047D4D4D4D401380028FCD170471F
:100A3000F0B581B04CF2001541F69007C4F2000504
:100A40000024C2F206272888298C084086B200BFFD
:100A500026FA04F0C00703D0396809B12046884758
:100A600001340437102CF3D12E8200BF00BF00BF29
:100A7000288C3042FCD101B0F0BDD4D4D4D4D4D42D
:100A800080B54FF0040E4CF2003045F23401C4F250
:100A90000000C0F2002100BF31F8022B02B1026059
:100AA00004300FF007C880BDEFF31081012282F3FC
:100AB000108841F6E402C2F2062232F8103023B167
:100AC00032F81030013B22F8103032F810207AB999
:100AD0004EF2FA3244F6984CC4F20102C0F2002CF5
:100AE00013883CF8100043F4254323EA00001080EB
:100AF00081F31088704710B5EFF31081012282F363
:100B0000108841F6E402C2F2062232F8103083B9AE
:100B10004EF2FA3E44F6984CC4F2010EC0F2002C9C
:100B2000BEF800403CF81030234343F42543AEF8B0
:100B3000003032F81030013322F8103081F3108881
:100B400010BDD4D441F6F001C2F206210A68131890
:100B5000B3F5805F0AD980B508487844016801F090
:100B600087FF0C2242504FF0FF3080BD40F26040C2
:100B70000B60C2F206201044704700BF5A490000C3
:100B800080B545F25422C5F24F020260084600F0DB
:100B900003F8002080BDD4D470B5044600F060F89E
:100BA00041F6D00CEFF31081C2F2062C012080F345
:100BB0001088DCF8000038B940F614500022C4F266
:100BC0004000027040220270DCF800000130CCF8D6
:100BD000000081F31088208828B340F6000E002121
:100BE000C4F2400E00BF00BF606800EBC10250F8C5
:100BF00031309288D8034FEA1220D2B20BD50EEBD7
:100C0000801555F8226026F4803645F8226023F4DA
:100C1000803645F822600EEB8010013140F822301A
:100C200020888142E0D30120EFF3108180F3108807
:100C3000DCF8000020B1DCF800000138CCF800003E
:100C4000DCF8000038B940F614500022C4F240002D
:100C500002708022027081F3108870BDD4D4D4D485
:100C60002DE9F04F81B004460088002865D04EF68B
:100C70004C4B0025C4F2010B4FF0010A00BF00BF2E
:100C800044F6F05642F240080027C0F20026C4F2B3
:100C9000200800BF00BF00BF606836F8021B00EBF1
:100CA000C50082888A423FD100689BF8001000F09E
:100CB000B8500AFA07F9B0F1807F09EA010017D1AC
:100CC00058B90120FFF717FF9BF8000040EA090020
:100CD0008BF800000120FFF7E7FE98F900000028DC
:100CE00022D498F8000040F0800017E000BF00BF59
:100CF00058B10120FFF7FFFE9BF8000020EA090031
:100D00008BF800000120FFF7CFFE98F90000B0F14A
:100D1000FF3F09DC98F8000000F07F0088F8000031
:100D2000C8200121FFF741FE013708F10208032F17
:100D3000B2D1208801358542A2D301B0BDE8F08F41
:100D40002DE9F041044680780D46097820F0030033
:100D50002562D5E90523461CD5F81C80A67048F20B
:100D600000062363C4F2350606EB01216E78C4E960
:100D7000091200212170E16216B940F00200A07052
:100D8000A97A95F90B20204600F060FB297995F9A6
:100D90000520204600F05AFBA97995F90720204646
:100DA00000F054FB297A95F90920204600F04EFB0B
:100DB0000120EFF3108680F310884FF0004128786F
:100DC00021FA00F043F20401C4F220010A6822EA89
:100DD00000000860086896200121FFF7E6FD86F311
:100DE00010884FF48061606A4FF480428160E86946
:100DF000E9786E78437802EA8131077866F3092151
:100E0000DA03437B92B207F0030703F001031144B6
:100E100041EA4352636A42EA0762416802F580523E
:100E20005A61027802F0FE03022B07D14FF60471DB
:100E3000022ACFF6007108BF203100E00968626A1B
:100E400011610C22017BAB78877862F39F014FF42C
:100E50004072022B08BF4FF48072002B07F0010391
:100E6000676A18BF114341EA0371F960626A0021A1
:100E700040F21F2391612A78012505FA02F21A42F5
:100E800004D0626A0023C1F61F735362B0F80F20CA
:100E9000807B636A40EA022041F60172C0F21F02C1
:100EA000104018632046C4E90411C4E9061100F09B
:100EB00074F9606AB8F80A101022A181C9F60752C5
:100EC0008266206A4CF20031C4F2000190F90530CC
:100ED0005F0951F8230020F4803041F8230051F8D5
:100EE00023004EF2001003F01F03CEF2000005FABB
:100EF00003F300F5C072BFF35F8F42F8273040F86C
:100F00002730236A93F90B3051F8237027F4803788
:100F100041F8237051F823705F0903F01F03BFF3FA
:100F20005F8F05FA03F342F8273040F82730236A31
:100F300093F9073051F8237027F4803741F8237074
:100F400051F823705F0903F01F03BFF35F8F05FAA9
:100F500003F342F8273040F82730236A93F9093029
:100F600051F8237027F4803741F8237051F823108B
:100F7000590903F01F03BFF35F8F05FA03F342F82B
:100F8000213040F8213040F21141606AC0F2010185
:100F90008160606A00BF00BF017FC907FCD044F6D2
:100FA00042110020C5F243316160BDE8F081034683
:100FB0000020C3E906127047D0F824C0DCF80830DE
:100FC00023F44013CCF80830D0F824C000BF00BF91
:100FD000DCF848305B00FBD5DCF8083023F0100368
:100FE000CCF80830D0F824C09CF81C30DB06FBD4C9
:100FF000C0E904120020DCF8081041F01011CCF810
:101000000810704770B50446406A4FF6EE720D4600
:101010008168CFF6CE7221F4401611408160002025
:101020002061204600F0B9F8606A2968016100205B
:10103000616A8E6070BD00204FF0FF32C1E900226E
:101040007047D4D4D4D4D4D48A0701D4062214E06F
:10105000426A936823F440139360426A00BF00BF62
:10106000936C5B00FCD5936823F010039360426A95
:10107000137FDB06FCD400224261C90701D00022A5
:10108000C26110467047844681620020CCE90B3271
:101090007047D4D4D4D4D4D4B0B544F64211044665
:1010A000C5F24331406888426AD1606A816821F4A0
:1010B00040118160606A816821F010018160606A7E
:1010C000017FC906FCD4206A4EF28011CEF20001E5
:1010D00090F90700430900F01F02012000FA02F214
:1010E00041F82320BFF34F8FBFF36F8F226A92F92D
:1010F0000920530902F01F0200FA02F241F82320EE
:10110000BFF34F8FBFF36F8F626A936823F480330E
:101110009360226A92F90520530902F01F0200FA37
:1011200002F241F82320BFF34F8FBFF36F8F226A83
:1011300092F90B20530902F01F0200FA02F241F863
:10114000232043F20401BFF34F8FBFF36F8FEFF300
:10115000108580F31088206AC4F220014FF000420D
:1011600000780B6822FA00F018430860086896209F
:101170000121FFF71AFC85F3108800206060B0BDE4
:101180000720B0BD0246C069086000200021D1617F
:101190007047062070470620704770B50446006A05
:1011A000C569687C00284FF00000A06008BF70BDD2
:1011B0004EF25400C4F20100017801F00F0102293F
:1011C00001D801220BE0CA1E052A06D244F624618A
:1011D000C0F2002151F8226003E00839102202FA1F
:1011E00001F6407800F00F00FFF793FB41F68C0208
:1011F000697CC2F20622B0FBF6F012685143B1FBE3
:10120000F0F00130A06070BDB0B54FF07041EFF369
:10121000038001EB00604CF200318015C4F2000144
:10122000425822F48032425041F6D4024158C2F270
:1012300006221458206A00690028606918D1C0B1DC
:10124000A07800F003000228206905D10088616AB7
:1012500020F4DC40486002E0616A00780871A07800
:10126000226900F003016069401A60611144216144
:10127000B8B9616A02228D68A06862F3155510B191
:10128000FFF7D2FB616A8D60A06A00284FF0000072
:10129000206106D0002180222046BDE8B04000F049
:1012A00001B8B0BD2DE9F04385B08146C06A0DF1AB
:1012B000040830B10546C44695E8D8008CE8D8004B
:1012C00000E04046D9F82030D9F828700271D9F8EA
:1012D00030201B78C0E902120360B847D9F82C000F
:1012E00010B198E88E008EC005B0BDE8F08310B54F
:1012F00082B04FF07041EFF3038001EB00604CF2DD
:1013000000318015C4F20001425822F4803242506C
:1013100041F6D4024158C2F206221458A07800F0D7
:101320000302606A022A03D101686FF35F2100E0C3
:101330000178E069019190B1A06901A900F0C8FDB0
:10134000A078D4E9061200F003000144101AC4E9A1
:1013500006100DD1A06A58B10021012202E0A06A56
:1013600030B10422204602B0BDE81040FFF79ABF1A
:1013700002B010BD10B54FF07041EFF3038001EBE8
:10138000006141F6D4028815C2F206224FF6EF74CE
:101390001058CFF6CF74426A936823409360826AF4
:1013A0000C161AB100210222FFF77CFF4CF200302C
:1013B000C4F2000050F8241021F4803140F82410C9
:1013C00050F8240010BD4FF07041EFF3038001EBA3
:1013D000006C41F6D4014FEAAC50C2F20621085825
:1013E0008178436A01F00301022903D119686FF380
:1013F0005F2100E0197870B59A6C20244FF0080E38
:1014000004EAD24410260EEA126516EA126204EBD0
:101410000506324403D09E6C360458BF40329E6E9F
:101420004FEA2C6446F0C8569E66836A0BB1FFF7FC
:1014300039FF4CF20030C4F2000050F8241021F4BF
:10144000803140F8241050F8240070BD10B54EF2E1
:10145000801C4FEA521ECEF2000C02F01F03012442
:10146000002A04FA03F34CF82E304CF200334FEA12
:101470000111BFF34F8FC4F20003BFF36F8F53F816
:10148000224024F4803443F8224053F8223004D41C
:101490000CEB020383F8801206E04EF6145402F0BF
:1014A0000F03CEF20004195541F6D401C2F2062111
:1014B00041F8220010BD80B500F002F8002080BD88
:1014C00000F09EBB022818BF704741F6F40045F2B9
:1014D0002801C2F20620C0F20021FFF751BB4FF0F5
:1014E000010238B331B3027F0AB10E2222E00A684A
:1014F000DAB180B5D1F804E0BEF1000F17D02C238B
:10150000C0E90132D1E902234FF0010CC0E9082300
:101510000022C0F800C0C0F80CE009698162C0E98F
:101520000422826180F81CC002E0032202E0032250
:10153000BDE880401046704710B584B0A0B1027F6E
:10154000A2B1C36882699A4212D2826803690024F8
:10155000D154D0E90312531C8B4254EA2291826980
:101560000161511C816114E0012412E0072410E0A4
:10157000016A69B190F8283009249B0709D5406AAF
:10158000CDE900040220CDE902026846884700E068
:101590000924204604B010BD10B584B0A8B1027F64
:1015A000AAB191B18269B2B182684369D25C0A7012
:1015B000C168D0E90523541C8C424FF0000454EA62
:1015C00022915A1EC0E9051202E0012400E007241E
:1015D000204604B010BD016A71B190F8282024247F
:1015E0005207F5D5406ACDE900040420029000209E
:1015F000039068468847EBE72424E9E738B10146C1
:10160000007F30B10020C1E90400886170470120EB
:1016100070470720704730B1027F32B119B180693D
:10162000086000207047012070470720704740B1D4
:10163000027F42B129B1C2688069101A0860002097
:101640007047012070470720704710B584B04FF0F5
:10165000010470B169B1826972B1026902B9C268EC
:10166000013A8368026100249A5C0A708169013939
:101670008161204604B010BD016A71B190F8282044
:1016800024245207F5D5406ACDE9000404200290D5
:101690000020039068468847EBE72424E9E718B167
:1016A0007C2101600020704701207047A8B17C298F
:1016B00015D110B545F274017C22C0F20021044618
:1016C00000F006FC04F1100004F14801C4E9011027
:1016D0002046BDE8104000F004B801207047032008
:1016E0007047B0B518B30446C06838B1A5682DB1CD
:1016F000606818B104F110018D4201D00220B0BD24
:101700002022284601F008F908B12520B0BD94F93F
:1017100015000028F9D494F917000028F5D494F99D
:1017200019000028F1D420886188814201D103206A
:10173000B0BDE8680028E1D128690028DED1E86959
:101740000028DBD02046BDE8B04000F000B878B1FA
:101750002DE9F041C76804463FB1A5682DB1666820
:101760001EB104F14808B04504D00220BDE8F08164
:101770000320704704F110012022284601F0CCF824
:1017800028B934223046414601F0C6F810B1252070
:10179000BDE8F08144F6F850C0F20020874207D13E
:1017A0004FF6FF762088B04202D06088B04202D166
:1017B0000320BDE8F0812879FF28E8D0A879FF2828
:1017C000E5D0287AFF28E2D06879DF28DFD0E879F1
:1017D000DF28DCD0687ADF28D9D0E8690028C4D0B7
:1017E0000020FFF796F842F60051C0F2311188420E
:1017F0005BD194F917000328C9DC94F9150003287C
:10180000C5DC94F919000328C1DC94F91B000328F6
:10181000BDDCA07D0F28BAD8207D0F28B7D8207E48
:101820000F28B4D8A07E0F28B1D8A268D169486823
:1018300000289AD0D368002B7FF497AF1269002A52
:101840007FF493AF628840F201139A42B0D12288AC
:10185000B2F5817FACD10A78002A98D14A78012A62
:101860007FF495AF8A78002A7FF491AF0A7A0F2A25
:101870007FF48DAF0A7B002A7FF489AF4A89B24298
:101880007FF485AF0023D1F80D20C0F201139A42F6
:101890007FF47DAF497C00297FF479AF0068B0F513
:1018A000C86018BF2520BDE8F0811B20BDE8F0818D
:1018B00080B5A0B000201F901FA8FFF7F0FE18B958
:1018C00068467C21FFF7F2FE20B080BDF0B59FB0E6
:1018D00044F66C6340F202116846C0F20023C0F285
:1018E0000111009100F1040E00F1100C93E81600B4
:1018F0008EE8160044F64C6E6246C0F2002EBEE83A
:101900003A003AC29EE83A003AC240F2000144F678
:101910003862C2F20621C0F2002200F1480E0968C6
:101920000C9100F1340192E8F800F8C141F6FC0195
:101930007246C2F2062178C978C278C978C291E8A5
:10194000F800F8C2CDE901ECFFF7CBFE1FB0F0BD07
:1019500010B582B00179022910D0042920D1806805
:101960008DF80700C1B241F664300829C2F20620A2
:1019700014D10DF10701FFF768FE11E041F6903434
:10198000C2F20624206858B100F065FB41F694319C
:101990000020C2F206212060087001E0FFF7CCFDB4
:1019A00002B010BDD4D4D4D440F22C01C2F206212E
:1019B00088421CBF4FF0FF307047B0B582B0FF20A7
:1019C0008DF807000020009000F021F818B14FF0CA
:1019D000FF3002B0B0BD41F664346D46C2F2062459
:1019E00020462946FFF717FE0028F0D1009808B9D5
:1019F0002FF00BC041F664300DF10701C2F2062052
:101A0000FFF7CAFD0028E2D19DF80700E1E770B5B5
:101A100041F6C435EFF31084C2F20625012080F3AD
:101A20001088287808B100200BE044F66C66C0F2FC
:101A30000026B06800284FF001001CBF3168002963
:101A400002D184F3108870BD71680029F9D041F685
:101A5000643040F20401C2F20620C2F20621FFF710
:101A60003EFD0028EDD141F6983040F21801C2F257
:101A70000620C2F20621FFF732FD0028E1D196E8E8
:101A80000700126890470028DBD1706841F65111B9
:101A9000C0F20021406988420ED0B168306841F63A
:101AA000C83300228E6941F65111C0F20021C2F202
:101AB0000623B0470028C4D101202870B3E710B531
:101AC00082B040F23C02C2F20622914205D10446A5
:101AD00000200190FFF79BFF20B14FF0FF3420461C
:101AE00002B010BD41F6983001A9C2F20620FFF7FE
:101AF0009EFD0199084305D140F23C00C2F2062048
:101B000000F012F841F69830E1B2C2F20620FFF779
:101B100013FD0A2CE3D140F23C00C2F2062000F093
:101B200003F80A24DBE7D4D440F23C01C2F20621D8
:101B3000884240F22C01C2F2062118BF884213D11C
:101B4000F0B581B0884212D000200090FFF75FFF0F
:101B500038B941F698306946C2F20620FFF75BFDBE
:101B600080B14FF0FF300BE04FF0FF30704741F68F
:101B70006430C2F20620FFF741FD00285FEA0FA0A3
:101B800001B0F0BD0098C8B341F69435C2F2062505
:101B9000297809B12FF005C000F0C2FB41F690365C
:101BA0000028C2F206263060DBD041F698340127C7
:101BB000C2F2062400BF00BF30683844411E2046F0
:101BC000FFF7EAFC009A974204D207F1010708B92F
:101BD0002FF00FC028B1306800F03DFA00203060CF
:101BE000BFE744F66C60C0F20020816800688B6833
:101BF000316898470028B4D1012028700020BFE741
:101C0000FFF756FE08B100BFFEE7FFF75FFE00B129
:101C1000FEE745F2FC00C0F2002000F06DFF45F247
:101C2000F00045F20E15C0F20020C0F20025046855
:101C3000204600F023FF0146284600F048FFF7E762
:101C40002DE9F04F099D844681B1C2B14BB3B1FA81
:101C500081F7B3FA83F6F71B202F4FD3002D18BF5F
:101C6000C5E900C100200021BDE8F08FCBB3002101
:101C7000002D64D00020C5E900C1BDE8F08F002B25
:101C800060D0002861D05F1E3B4200F08580B1FA31
:101C900081F7B3FA83F6F71B1F2FDFD207F1010C90
:101CA0003CE0571E3A425DD0B1FA81F7B2FA82F6B3
:101CB000F71B07F1210CBCF1200F24D0BCF11F0F42
:101CC00079D8CCF1200620FA0CF721FA0CF901FAA8
:101CD00006F5B0403D434FF0000ABCF1010F2CD097
:101CE0007CE0B0FBF2FC002D1EBF0CFB12000021BB
:101CF000C5E9000100216046BDE8F08F07F1010C45
:101D0000BCF1200F0AD14FF000094FF0200C0D4616
:101D10004FF0000ABCF1010F0FD05FE0C7F11F07C1
:101D200020FA0CF621FA0CF901FA07F5B840354310
:101D30004FF0000ABCF1010F50D100248FE00020C9
:101D4000BDE8F08F6046BDE8F08FB1FBF3FC002DDD
:101D50001EBF0CFB13100021C5E9001000216046D6
:101D6000BDE8F08F002D1EBF00230740C5E90073BA
:101D7000012A0ED092FAA2F24F00B2FA82F202F0D9
:101D80001F03D140D8401F23934307FA03F343EACC
:101D9000000C6046BDE8F08F002D1CBF07EA010073
:101DA000C5E900C093FAA3F0B0FA80F021FA00F080
:101DB0000021BDE8F08FACF12007CCF140044FF0DA
:101DC000000920FA07F601FA04F52E4300FA04FA96
:101DD00021FA07F53046BCF1010FAED02CF0010717
:101DE0000126023F4FF0000B06EB570E4FEA490465
:101DF00044EAD5746D0045EAD0754000E743E943F5
:101E0000891843EB0708AF1A64EB0306B8F1000F1B
:101E100056EA448457EA4585640044EAD5746D0067
:101E200045EAD07540EADA70AE1A6FEA050164EB54
:101E3000030789184FEA40006FEA0401594157EA45
:101E4000448956EA4585CC0F4BEA4A010027A34650
:101E500040EAD170490041EAD87A0FF039C85FEA08
:101E6000CC711ED06F004FEA490147EAD07741EAB2
:101E7000D571B7EB020C4FEA400061EB030EFD4356
:101E800052196FEA010653EB060240EADA705EEA85
:101E900041895CEA4785D10F44EA4A0200270C4693
:101EA00092464FEADA7141EA400009994FEA4A0244
:101EB000002918BFC1E9005940EA070122F00100DA
:101EC0002043BDE8F08F0A46002100F077B8D4D453
:101ED000844641EA000313F0030349D1403A23D377
:101EE0000B6803604B6843608B688360CB68C3609A
:101EF0000B6903614B6943618B698361CB69C36182
:101F00000B6A03624B6A43628B6A8362CB6AC36269
:101F10000B6B03634B6B43638B6B8363CB6BC36351
:101F200040304031403ADBD230320BD30B68036093
:101F30004B6843608B688360CB68C360103010319E
:101F4000103AF3D20C3205D351F8043B40F8043B6D
:101F5000043AF9D2043208D0D2071CBF11F8013B71
:101F600000F8013B01D30B8803806046704700BF37
:101F7000082A13D38B07B1D010F00303AED0C3F1FE
:101F80000403D21ADB071CBF11F8013B00F8013B28
:101F9000A4D331F8023B20F8023B9FE7043AD9D39F
:101FA000013A11F8013B00F8013BF9D20B780370BC
:101FB0004B7843708B7883706046704770B48407A9
:101FC00046D0541E002A41D0CDB2034602E0621E24
:101FD000E4B3144603F8015B9A07F8D1032C2ED919
:101FE000CDB245EA05250F2C45EA054519D9264607
:101FF00003F11002103E0F2E42F8105C42F80C5C08
:1020000042F8085C42F8045C02F11002F2D8A4F134
:10201000100222F00F0204F00F041032032C1344BC
:102020000DD91E462246121F032A46F8045BFAD831
:10203000221F22F00302121D134404F003042CB1EA
:10204000C9B21C4403F8011BA342FBD170BC70470A
:1020500014460346C2E7002808BF704710B504467F
:1020600041F60C40C2F2062000F054FC54F8042C57
:10207000A4F1080E40F24C0C22F00101C2F2062C31
:102080000EEB0103DCF80800D2075C68834224F001
:1020900003042BD05C6072B9DEF80000AEEB000EDA
:1020A00001440CF10800DEF8082082425BD0DEF823
:1020B0000C00D060826018190079C00708D19A68B6
:1020C00021440CF10804A24264D0D868D060826038
:1020D0004A0A41F001004EF80110CEF804002CD05D
:1020E000042A3CD8382000EB91127DE0214442B90B
:1020F000DEF80000AEEB000E0144DEE902239A6038
:10210000D36041F00100CEF8040040F25440CCF816
:1021100008E0C2F206200068814206D341F6D830BA
:10212000C2F20620006800F09DF841F60C40C2F2B1
:102130000620BDE8104000F0EEBB01F4FC70DCF8B6
:102140000420604449090124836804FA01F1CEE9BE
:1021500002301143CCF80410C0F808E078E0142AEB
:102160002AD85B3240E018190079C00716D1D3E9AC
:102170000202214441F00103CEF804304EF8011070
:10218000C260906041F60C40C2F20620BDE81040EB
:1021900000F0C1BBCCE904EECEE9024441F00100FD
:1021A0004EF80110CEF8040041F60C40C2F20620B1
:1021B000BDE8104000F0AFBB542A03D86E2000EBFE
:1021C000113211E04AF60022C0F20202914203D21B
:1021D000772000EBD13207E002F500237E227C203D
:1021E000994238BF00EB91420CEBC204A368A342B2
:1021F00021D0586820F0030081421AD29B68A34284
:1022000017D0586820F00300814212D29B68A34285
:102210000FD0586820F0030081420AD29B68A34285
:1022200007D0586820F00300814202D29B68A34285
:10223000DFD1DC6808E090080122DCF8041002FA23
:1022400000F00843CCF80400CEE90234C4F808E0FA
:10225000C3F80CE041F60C40C2F20620BDE8104085
:1022600000F059BB2DE9F041044641F60C40C2F2A2
:10227000062000F04FFB40F24C0840F6FF71C2F21E
:102280000628D8F80800406820F00306301B002418
:1022900000F6EF7020EA0105A5F58057B7F5805FDD
:1022A00034DB0020FEF74EFCD8F808103144884299
:1022B0002CD1C5F58050FEF745FC01300ED041F61B
:1022C000E430D8F80820C2F2062001240168C91BB6
:1022D0000160F01B40F00100506017E00020002476
:1022E000FEF730FCD8F80810421A102A0EDB40F234
:1022F000584342F00102C2F206234A6041F6E4313B
:102300001B68C2F206210024C01A086041F60C4086
:10231000C2F2062000F0FFFA2046BDE8F081D4D4D6
:102320002DE9F04F81B000F10B06172E344698BF0F
:102330001724002C28D424F00705854224D341F625
:102340000C40C2F2062000F0E5FA40F24C09F00819
:10235000C2F206293E2821D805EB0901C868884247
:1023600004BF0831C868884225D041680446C26865
:1023700021F0030154F8083F084493604168DA6093
:1023800041F0010141608BE0DFF884150C2200F080
:102390006FFB4250002001B0BDE8F08F0020B0EB91
:1023A000562F01D1E0082CE0700A04280CD8382000
:1023B00000EB941025E0E008811CD9F8104009F1E9
:1023C000080E744538D1DFE0142802D8600A5B306B
:1023D00017E0542803D86E2000EB143011E04AF6C1
:1023E0000020C0F20200864203D2772000EBD430F6
:1023F00007E000F500227E207C21964238BF01EBE9
:10240000944009EBC002D16891420DD04B6823F093
:1024100003077E1B102E06DACB68002E36D5194630
:102420009342F3D100E00138411CD9F8104009F182
:10243000080E744500F0A880606820F00302531B6A
:10244000102B0FDB601945F00101C9F81400616021
:1024500043F00101C9F81000A350C0E9011EC0F803
:102460000CE008E0002BC9E904EE23D4A018416871
:1024700041F00101416041F60C40C2F2062000F03B
:102480004AFA04F1080001B0BDE8F08FC81951F80C
:10249000082F9A6047680C46D36047F001024260FB
:1024A00041F60C40C2F2062000F035FA204601B099
:1024B000BDE8F08F430A05D0042B14D8382303EB72
:1024C00090162DE000F4FC72D9F804704A444009DB
:1024D0000126936806FA00F0C4E902323843C9F8CD
:1024E000040094604FE0142B02D803F15B0617E060
:1024F000542B03D86E2303EB103611E04AF6002369
:10250000C0F20203984203D2772303EBD03607E0F0
:1025100003F500237E267C27984238BF07EB9046C0
:1025200009EBC607BB68BB4221D0586820F0030006
:1025300082421AD29B68BB4217D0586820F0030031
:10254000824212D29B68BB420FD0586820F0030031
:1025500082420AD29B68BB4207D0586820F0030031
:10256000824202D29B68BB42DFD1DF6808E0B0083C
:102570000126D9F8042006FA00F01043C9F8040037
:10258000C4E90237BC60DC60D9F804808808012205
:1025900002FA00F3984545D2D9F80870D7F804A09C
:1025A0002AF00306701B02D30F2800F3928141F634
:1025B000D83840F2584BC2F20628C2F2062BD8F89F
:1025C000000041F20F02DBF8001040F6FF732844D0
:1025D0000244013122EA030408BF00F1100420463E
:1025E000FEF7B0FA411C00F06B81BA194F4502D0DA
:1025F0009042C0F06581D8F80C1090422144C8F890
:102600000C1002BF13466FF31F33002B00F0F8804D
:10261000DBF80030013300F0FA80821A1144C8F868
:102620000C10F6E018EA030F00F0C6804FF0FF3CF4
:1026300009EBC1063746FF68B74209D0786820F039
:102640000304601B102880F284800028F3D49FE0EC
:102650004C1CA00736D006F108021746FF689742C7
:1026600009D0786820F00304601B0F2871DCB0F1FA
:10267000FF3FF3DD8CE08C1CA00723D006F1100295
:102680001746FF68974209D0786820F00304601B62
:102690000F285EDCB0F1FF3FF3DD79E0CC1CA00732
:1026A00010D006F118021746FF68974209D07868E3
:1026B00020F00304601B0F284BDCB0F1FF3FF3DD7B
:1026C00066E00C1D880708D0304650F80829824281
:1026D00007D101F0030001281FD128EA0308C9F837
:1026E00004800CEB43004045BFF456AF5B0021462D
:1026F00013EA080F9CD118EA430F1FD118EA830F81
:102700001FD118EAC30F20D11801103418EA031F93
:102710000346F0D0214603468AE756F8081CA6F186
:1027200010029142DDD10228D7D056F8101CA6F134
:102730001802914208BF0328CFD0D2E7211D5B00C9
:1027400076E79B0004F1080172E7DB0004F10C015D
:102750006EE739463E46385140F00100FA6845F0D0
:1027600001074F60294456F8083F486041F60C4085
:10277000C2F206209360DA60C9F81410C9F810108C
:10278000C1E902EE00F0C7F8304601B0BDE8F08FB5
:102790003919F86857F8082F4B688260D06043F009
:1027A0000100486041F60C40C2F2062000F0B3F888
:1027B000384601B0BDE8F08F022221F0030102FA91
:1027C00000F0034610EA080F0ED118EA430F0DD1AE
:1027D00018EA830F0FD11031180118EAC30FF0D097
:1027E000DB004FF0FF3C23E704311FE75B000831BB
:1027F0004FF0FF3C1CE79B000C314FF0FF3C17E70C
:10280000D9F80800A21942F0010242604CE0CBF86E
:10281000000000F1080111F0070218BFC2F1080220
:1028200000EB020B0BEB040661F00700A2EB0604C1
:1028300018BF06446FF31F342046FEF783F9B0F14A
:10284000FF32D8F80C1054EA1282431C114456EAA5
:102850000080A2EB0B024F451044C9F808B040F0CD
:102860000100C8F80C10CBF804001DD0BAF10F0F0E
:1028700003D80120CBF8040022E07868AAF10C020A
:1028800022F00703102A00F001001844786007EBDB
:1028900003004FF00503C0E9013305D307F1080039
:1028A000FFF7D9FBD8F80C10D8F80400814288BF94
:1028B000C8F80410D8F80800814288BFC8F808108A
:1028C000D9F80870786820F00300401B15D30F2852
:1028D00013DD45F001017960791940F00100C9F874
:1028E0000810486041F60C40C2F2062000F013F8D0
:1028F00007F1080001B0BDE8F08F41F60C40C2F2CC
:10290000062000F008F8002001B0BDE8F08F00BFFD
:1029100008000000704770472DE9F041042A03D2F7
:102920001346844633B928E041EA00039B072AD0C6
:1029300013468446581EA3F10208A3F1030E002497
:102940000D5D1CF80460AE421AD1A04215D00CEB0C
:1029500004070A1955787E78AE4211D1A0450CD0F3
:102960009578BE78AE420BD1A64506D0D578FE78D4
:10297000AE4205D10434A342E2D10020BDE8F0818B
:10298000701BBDE8F0814FF0000E044651F80E3088
:1029900050F80E709F422DD1131F01EB0E0504F16C
:1029A000040C042B2BD300EB0E06D5F804807768BB
:1029B000474526D1A2F1080304F1080C042B22D3C9
:1029C000D5F80880B768474520D1A2F10C0304F17F
:1029D0000C0C042B1DD3EF68F668BE421CD1103AD4
:1029E0000EF1100E1034032AD0D800EB0E0C7144F7
:1029F000134697E700EB0E0C714413469AE7291D26
:102A000090E7291D96E705F108018BE705F108011C
:102A100090E705F10C0185E705F10C018AE710B597
:102A200040F2AC4140F20002C0F20021C0F20002CC
:102A30000446FFF74DFA40F2000040F20401C0F2F4
:102A40000000C0F200012044FFF73DFA10BD40F243
:102A50000801C0F20001401A41F61041C2F20621FD
:102A600008607047D4D4D4D4D4D4D4D4D4D4D4D457
:102A70000148006870470000101C06228178CA07D0
:102A800001BF41F0040181704FF0FF30704710B575
:102A90000022D0E85F1FC0E8532F0BB12FF007C80A
:102AA00011B1481EC0B210BD816804468847B0F11C
:102AB000FF3F01DDC0B210BDA2780821013008BF80
:102AC000042142EA0100A0704FF0FF3010BD83B036
:102AD00080B581B0844603A80EC045F2F400C0F270
:102AE0000020006803AA6146009200F027F801B0B8
:102AF000BDE8804003B0704770B5054645F2F4006C
:102B0000C0F200200468A078800714D56668287891
:102B100028B12146B04701350028F8D507E00A2042
:102B20002146B047B0F1FF3FC4BF002070BDA07880
:102B300040F00400A0704FF0FF3070BD2DE9F04F61
:102B400099B0814680781892800740F1B585189831
:102B50000027D9F804808A46179011A8821D0C928C
:102B6000421E053010920E900D91514611F8010B46
:102B7000252803D08A4638B900F0A0BD9AF8015044
:102B80000AF1020A252D06D14946C047013700281F
:102B9000EBD500F08BBD002200244FF0000C4FF06D
:102BA000000B04E01AF8015B002D00F02D811FFAE4
:102BB0008BF61F2E20D8A5F1200010281ED8DFE8A4
:102BC00010F015001D001D0018001D001D001D0047
:102BD00014001D001D001D0011001D00CC001D0073
:102BE0001D00C9004BF0020B00E0DBE74BF0040BCB
:102BF000D8E74BF0100BD5E77F2E0DD8A5F13000AC
:102C0000092840D8402E80F0A0800CEB8C014BF0BE
:102C1000200B00EB410CC5E7A5F14C002E2800F27B
:102C2000F480DFE810F08F00F200F200F200F20012
:102C3000F200F200F200F200F200F200F200F20004
:102C4000F200F200F200F200F200F200F200F200F4
:102C5000F200F200F200F200F200F200F200A40032
:102C6000F2008F00F2009D00F200F200F200F2008C
:102C7000F200F200F2002F00F200F200F200F20087
:102C8000F2002F008EE7A5F12400562800F2BD8047
:102C9000DFE810F08600BB00BB00BB00BB00BB0040
:102CA0007400BB00BB00BB00A400BB00BB00BB00AA
:102CB000BB00BB00BB00BB00BB00BB00BB00BB003C
:102CC000BB00BB00BB00BB00BB00BB00BB00BB002C
:102CD000BB00BB00BB00BB00BB00BB00BB00BB001C
:102CE000BB00BB005800BB00BB00BB00BB00BB006F
:102CF000BB00BB00BB00BB00BB00BB00BB00BB00FC
:102D0000BB00BB00BB00BB00BB00BB00BB00BB00EB
:102D1000BB00BB00BB00BB00BB00BB006D00BB0029
:102D20005800BB006600BB00BB00BB00BB00BB0083
:102D3000BB00BB005700BB00BB00BB00BB00BB001F
:102D400057002FE74BF4207B2CE704EB840100EBCA
:102D5000410427E74BF0010B24E74BF0080B21E778
:102D60000BF080004BEA800040F0800B1AE70BF478
:102D700080704BEA400040F4807B13E7002A7FF428
:102D800011AF17983F2E00F104011791006832D857
:102D9000B0F1FF3F32DD4BF0200B0022844601E70B
:102DA00012B31898402E179017A90D986546CDF8C4
:102DB0003C90C14690465CEA348200F083FC179850
:102DC000402E4246C84600F1040117910068DDF824
:102DD0003C9050EA358C54EA3084E3E63F2E00F212
:102DE0006D844BF0400BDDE6624600244FF0000C92
:102DF0004FF0000BD6E600220446D3E64BF0280B3A
:102E0000C0F1000C0022CDE60025CDF83CC03AB15F
:102E1000189817A917900D9800F054FCDDF83CC0E5
:102E2000002C24EAE47E45F0200048BF2BF0400B44
:102E300061281CBFA0F16501022925D817996128D6
:102E400001F1070121F0070101F108021792A0EB3F
:102E5000050291ED000B0A9244D15FEA4B6058BF26
:102E60004FF0FF3E11A8D2B27146764600F0C8FD81
:102E7000451C4BF4C05B4FF0700C4FF0010EE8B2F4
:102E80008642D8BF461E5CE0A5F16301122900F21C
:102E90000A8108230026DFE811F03501130006013E
:102EA00006010601060113000601060106010601DE
:102EB000060161015D01060106010D0106012E01F9
:102EC0001FFA8BF15FEA0B6000F10C811798021D6D
:102ED00017920068CA0540F10C81890554BF00B201
:102EE00040B206E15FEA4B6158BF4FF0060E66281C
:102EF00009D065280FD14BF4805B76460EF10101B5
:102F00000023652411E04BF4005B012266241121AB
:102F1000764673460AE05FEA0E61A0F1020471464C
:102F200076464FF0000308BF0121002211A8C9B264
:102F3000112928BF112100F073FF05464FF0020E42
:102F4000A446119B9DF84800A3F10A0111F1130F4B
:102F500038BF4FF0020EA3F16401089111F1C70FC1
:102F600038BF4FF0030E0F9CC1074FD15FEA8B7142
:102F70006FD41FFA8BF1202202EAC10211F0040F74
:102F80005FEA1F9110F00C0F45D11BF4405F0493D2
:102F9000CDE9062140F02B82012E4FF0010056EAC8
:102FA00080801FFA8BF12A0600F06D810E9BEAB239
:102FB000134413F8013C302B40F006826B1E1A06B6
:102FC00021D02E460E9DDAB2154415F8015C302D45
:102FD00040F0F981B31E1A0615D00E9DDAB21544E1
:102FE00015F8015C302D40F0EE81F31E1A060AD070
:102FF0000E9DDAB2154415F8015C302D40F0E381E6
:10300000351F2A06D2D100250022DDE12D22002124
:1030100010F00C0FB9D000294FF0030050EA1090C7
:10302000844212DD0A9E0D465FEA0B7117D4041B21
:10303000934620204946C047002800F137830137D6
:103040000134F6D300245A460AE000240A9E49B10E
:103050000FE02B22002110F00C0FDCD195E7241A91
:10306000294631B910464946C047002800F11E8361
:1030700001379DF8480045F20A11C0F2002100070F
:1030800045F2F800C0F2002050EA51852878002867
:1030900000F0F982801B4946C0B2C04701370135B4
:1030A0000028F3D502E3782840F09880C5F1880322
:1030B0002E4653E01798011D1791006845F21E1126
:1030C000C0F20021002851EA00855FEA4B6058BF3A
:1030D0004FF0FF3E2846714600F06AFEDDF83CC026
:1030E000064617E01798890500F18680011D1791A3
:1030F0000068C11788E04FF6EF700BEA000B0A2357
:1031000075262BE01798012611AD011D1791006857
:103110008DF844005FEA0B700ED4B4450CD9202022
:1031200049466446C047002800F1C082A4F1010C62
:103130000137B445F3D8B4463744ACEB0604002E4F
:1031400000F0A18215F8010B4946C047013E002856
:10315000F5D5ABE24BF0100B102378264FF6F97043
:103160000BEA00025FEA0B600B960AD41798011D68
:1031700017910668D1050AD5900554BFB6B2F6B2CC
:1031800005E0179891050AD4011D179106680021E2
:1031900056EA010008BF2BF0160278D10FE0073085
:1031A000154620F007000246416852F8086B179256
:1031B0002A4656EA010008BF2BF0160267D1002606
:1031C0005FEA4B6062D50021012C60DA4FF6E970AE
:1031D0000BEA00010B9D480637D467E025204946DD
:1031E000C047002800F1628228464946C04702379E
:1031F00000287FF5BAAC59E2073020F007010A46F3
:10320000496852F8080B179200295A46CDF82CE06D
:1032100048BF42F4806250EA010322D080EAE170A4
:1032200081EAE173B0EBE17063EBE17111AC22F084
:1032300010060A23224600F06DFB3146061BDDF81E
:103240003CC0DDF82CE0480630D54FF6FE707645E0
:1032500000EA01002BDA002D08BF21F011007146B1
:1032600026E05FEA4B604FF0000040F19E810021B4
:10327000012CDBDA4FF6EE70DDF83CC000EA0B0003
:10328000DDF82CE014E0002500229EE0002111ACC6
:10329000304616467546224600F03CFB3146AE46A7
:1032A000DDF83CC0061B0B9D4806CED408463146CF
:1032B0001FFA80FBC0060AD440F206401BEA000F4A
:1032C0005FEA0F9044185FEA0B7009D526E0002DE5
:1032D0004FF0010050EA009044185FEA0B701DD4D3
:1032E0005FEACB7008D0B646644505DA06EB0C0001
:1032F000A0EB040E644611E064450FDACDF82CE033
:1033000020204946C047002800F1D0810F980134A1
:103310000137A042F4D1DDF82CE004465FEACB602F
:103320001BD440F206401BEA000F26D05FEA8B70E8
:1033300075464FF02B0058BF20205FEA4B5149469D
:1033400048BF2D20C047002800F1B0810137AE46AC
:10335000F3467546B64514DC1CE030204946F3467A
:10336000C047002800F1A28135B328464946C0472E
:10337000002800F19B810237DE46F3467546B645CC
:1033800008DD30204946C047002800F18F81013D0B
:10339000B542F6DC0F985E45A0EB040456EACB80FC
:1033A0000744002E00F06F8110984946805DC047A9
:1033B000013E0028F5D579E10137DE46F346754632
:1033C000B645DEDCE6E71D46049BC90652EA50819D
:1033D00013F1040F08DB834206DA4BF4005B8B42E7
:1033E00004DAD8430E1802E04E1E00E00026A3F5D2
:1033F0007A711FFA8BF4099424055FEA8B400395D8
:10340000CDE9011C05940CD411F5FA6F70464FF00C
:10341000050198BF0420002C58BF032101EB000CCC
:1034200003E023EAE37000F1010CDDF824B0002E84
:10343000079A4FF000050B96CBF3001182F00102C2
:1034400051EA06900F9983186344CB1A53EAC58456
:103450001BF0090F11D10A9E84B1604475461044D7
:10346000441A20204946C047002800F11F81013737
:103470000134F6D30024AE4600E00A9E0798CDF84A
:1034800000E00028069805D14946C047002800F111
:103490000D810137059800280ED530204946C047D8
:1034A000002800F10381C6F178004946C0B2C04748
:1034B000002800F1FB800237099800070AD44CB1BC
:1034C000274430204946C047002800F1EF80013CE6
:1034D000F7D100240998800427D49DF84900494673
:1034E000C047002800F1E2800B98012857DB2E200E
:1034F0004946C047002800F1D9800B98384400F1B4
:10350000020B0398C5B20020471CAF4202D20C99AF
:10351000085C00E030204946C047002800F1C68022
:103520000B98B8423846EFD148E0049820EAE0769C
:10353000851B0B98C0F1000B0398C0B20F90701C54
:1035400006D12E204946C047002800F1AF80013740
:103550003020002D04D40F998D42BCBF0E98405DE1
:1035600049465E4506DDC04701350137013E00286A
:10357000E5D59BE0C047002800F198800999781CA8
:10358000C90640F19180002E40F08C802E204946E3
:10359000C047B0F1FF3F40F38980023773E00998DC
:1035A000C00604D407F1010B08E000213EE62E20FE
:1035B0004946C047002879D407F1020B02984946D2
:1035C000801BC0B2C047002870D4049E2B204946FF
:1035D000002E48BF2D20C047002E48BF764200284D
:1035E00064D4019810F5FA6F15D844F6D3504946C3
:1035F000C1F26200A6FB0005302000EB9510C0B2BE
:10360000C047002852D4A8094FF47A7100FB116218
:103610000BF1030506E008980BF10205324610F1A4
:10362000C80F3BD848F21F504946C5F2EB10174669
:10363000A2FB0006302000EB5610C0B2C0470028A5
:1036400034D47009642100FB117201354CF6CD4071
:103650004946CCF6CC401746A2FB0006302000EBD2
:10366000D600C0B2C047002820D4F008013500EBD6
:103670008000A7EB400202F130004946C0B2C047CB
:10368000002813D46F1C012CFFF66FAA2020494696
:10369000C0470137013C0028F5D507E00098022813
:1036A000D4D2E8E70746EEE70746ECE799F80200D0
:1036B00040F0040089F802004FF0FF37384619B097
:1036C000BDE8F08F022AB8BF70472DE9F04F42F6EF
:1036D00089084FF0010CC0F2010804464FF0010EBA
:1036E00003E05F789C1C252F29D1234613F8015B4A
:1036F000252D01D025B90AE16778A31C252F1DD1FE
:103700001C4614F8015B252D01D025B9FFE05F7838
:103710009C1C252F13D1234613F8015B252D01D0C6
:1037200025B9F4E06778A31C252F07D11C4614F8AF
:10373000015B252DD5D0002DD7D1E8E01C464FF0F8
:10374000000A4FF00009002604E014F8017B002F66
:1037500000F0A980B346BAF11F0F0AD8A7F12005DF
:10376000102D09D80CFA05F515EA080F40F07C80F9
:1037700002E0BAF17F0F0AD8A7F13005092D3ED833
:103780000BEB8B034AF0200A05EB4306DDE7A7F1BC
:103790004C052E2D00F288805E46DFE815F06700AC
:1037A00085008500850085008500850085008500F1
:1037B00085008500850085008500850085008500E1
:1037C00085008500850085008500850085008500D1
:1037D0008500850085007700850067008500700002
:1037E00085008500850085008500850085002F0007
:1037F000850085008500850085002F00A5E7A7F1DD
:103800002405562D00F250800026DFE805F0334DE8
:103810004D4D4D4D324D4D4D324D4D4D4D4D4D4D0E
:103820004D4D4D4D4D4D4D4D4D4D4D4D4D4D4D4DC8
:103830004D4D4D4D4D4D2F4D4D4D4D4D4D4D4D4DD6
:103840004D4D4D4D4D4D4D4D4D4D4D4D4D4D4D4DA8
:103850004D4D3F4D2F4D384D4D4D4D4D4D4D2C4DFA
:103860004D4D4D4D2C00FFE75E466EE74AF4207A41
:10387000FAE76AE7B9F1000F0FD1D94665E70AF018
:1038800080034AEA830343F0800AEDE70AF4807379
:103890004AEA430343F4807AE6E7F3457FF455AF01
:1038A0006327F14600E00027B9F1000F2FD0F14562
:1038B00024D147F02003612B1CBF653B022B05D8A8
:1038C0000B68073323F00703083313E0A7F1630302
:1038D000102B0AD8DFE803F00C09090909090909C6
:1038E00009090909090909090C005FEA0A6309D4F1
:1038F0000B6804330EF1010E04460B609645FFF68B
:10390000F4AE04E00B685FEA8A54DAD4F1E7BDE86C
:10391000F04F70472DE9F04703F01F069846914697
:103920008A460546284651463246002300F06EFA84
:10393000044600FB16500F46A0EB0801092888BF7B
:1039400001F13700303089F80000A81B7AF100003F
:1039500049D3204639463246002300F057FA05463F
:1039600000FB16408A46A0EB0801092888BF01F138
:103970003700303089F80100A01B77F1000036D302
:10398000284651463246002300F040FA044600FB28
:1039900016500F46A0EB0801092888BF01F1370037
:1039A000303089F80200A81B7AF1000023D32046AA
:1039B00039463246002300F029FA054600FB16403E
:1039C0008A46A0EB0801092888BF01F13700303092
:1039D00089F8030009F10409A01B77F10000A1D2C6
:1039E0004846BDE8F08709F10100BDE8F08709F11C
:1039F0000200BDE8F08709F103094846BDE8F087F9
:103A00002DE9F04F85B05AEC103B4FEADA77CAF354
:103A10000A566FF31F5A077153EA0A0408BF002EB3
:103A20000ED040F2FF75AE423CD10421002C18BFED
:103A30000821394401710021084605B0BDE8F08F26
:103A4000002700234FF0000A0029076037D40D2912
:103A500037D3190F00F1050B41EA0A110491190E31
:103A60004FEA1A5441EA0A210391190D4FEA1A4606
:103A700041EA0A310291190C4FEA1A3841EA0A4127
:103A80000191190B41EA0A5C190A41EA0A6E190907
:103A900041EA0A794FEA1A1103F00F034FEA1A2795
:103AA000009180E04FF60247002ECFF6FF771CBF53
:103AB000A6F2FF370AF5801A00290760C7D5002152
:103AC00046E03326A6EB8105C5F1200613274FF00B
:103AD000020CA7EB81072CFA06F401264FF0000E2A
:103AE000002F58BF0CFA07F458BF06FA07FE06FA73
:103AF00005F60CFA05F558BF002658BF0025D5F18C
:103B000000094FF0000868EB040C013D64F100046B
:103B10001D4004EA0A04751B7EEB040411D38C00DB
:103B2000C4F13405D4F1140423FA05F7C5F12005D6
:103B30000AFA05F545EA070558BF2AFA04F5EC0725
:103B400002D09B194AEB0E0A03EA09030AEA0C0A9F
:103B50001F0947EA0A791F0F1D0B47EA0A17049746
:103B60001F0E45EA0A5C47EA0A2703971F0D1D0A44
:103B700047EA0A3702971F0C45EA0A6E47EA0A47E6
:103B800000F1050B13F00F0301974FEA1A174FEAE4
:103B90001A544FEA1A464FEA1A384FEA1A25009784
:103BA00000F0B4802F46991A092B88BF01F1270332
:103BB00003F13001817409F00F030D219D1A092BC7
:103BC00088BF05F127030C2903F13003437498BF24
:103BD0000C210EF00F039D1A092B88BF05F1270356
:103BE0000B2903F13003037498BF0B210CF00F0372
:103BF0009D1A092B88BF05F127030A2903F1300319
:103C0000C37398BF0A21019B3D4603F00F039F1A1F
:103C1000092B88BF07F12703092903F130038373B8
:103C200098BF0921029B03F00F039F1A092B88BF3D
:103C300007F12703082903F13003437398BF0821D4
:103C4000039B03F00F039F1A092B88BF07F127037B
:103C5000072903F13003037398BF0721049B03F086
:103C60000F039F1A092B88BF07F12703062903F1C9
:103C70003003C37298BF06210AF00F039F1A092B65
:103C800088BF07F12703052903F13003837298BF2A
:103C90000521009B03F00F039F1A092B88BF07F132
:103CA0002703042903F13003437298BF042105F070
:103CB0000F039F1A092B88BF07F12703032903F17C
:103CC0003003037298BF032108F00F039F1A092BDA
:103CD00088BF07F12703022903F13003C37106F0FF
:103CE0000F0398BF02219A1A092B88BF02F12703FC
:103CF00003F130028271012998BF012104F13000E3
:103D00008BF80000084605B0BDE8F08F19F00F03EE
:103D100048D10C2946D21EF00F0345D10B2943D2BE
:103D20001CF00F0342D10A2940D2019B13F00F036C
:103D30007FF46DAF0929BFF46AAF029B13F00F0344
:103D40007FF473AF0829BFF470AF039B13F00F0328
:103D50007FF479AF0729BFF476AF049B13F00F030C
:103D60007FF47FAF0629BFF47CAF1AF00F037FF416
:103D700085AF0529BFF482AF17F00F038CD104295A
:103D80008AD215F00F0394D1032992D218F00F03B1
:103D90009CD102299AD206F00F0353EA0107A2D15F
:103DA0000021ABE72F4609E72F4614E72F461FE710
:103DB000844639B370B500EB010C4B1EA1F1020E25
:103DC000CC1E0022855C85B1934219D085186E788F
:103DD00076B1964514D0AE786EB1944210D0EE789C
:103DE00066B104329142EDD10AE000EB020C07E02B
:103DF00005F1010C04E005F1020C01E005F1030CF2
:103E0000BDE87040ACEB00007047D4D440B584B03E
:103E100002AE0096FDF714FF029A039B04B040BD6A
:103E20002DE9F04FA1B056EC108BB246C6F30A5400
:103E30006FF31F5AF50F58EA0A0708BF002C0ED07F
:103E400040F2FF76B44215D10821002F08BF0421AB
:103E5000002429440171204621B0BDE8F08FA91C3F
:103E6000017130210124417100210160204621B0FF
:103E7000BDE8F08FA4F23549002CCDE9062308F007
:103E800001060495CDE9081006BF4FF6CC39CFF6F0
:103E9000FF790AF5801A4FEA8A0242EA9870002FE9
:103EA00015905FEA0F90022C5FEA2F91B9F1000F95
:103EB00040EA01074FEA880014900596139749D409
:103EC000484600F021FD0546B9F1030F88BF013DCA
:103ED000284600F027FD0DF1580B044628465946A8
:103EE00000F00BFE1AA81CA95A460297CDE9001053
:103EF000A5EB09002044514600F17C034046AB4647
:103F000000F031FC8246152D5FD8149F4CF6CD464B
:103F1000159D1EA8CCF6CC460C4600903846294686
:103F200032464FF0CC3300F072FEDDE91E0182080C
:103F300042EA817120F0030008444042F8426AD10D
:103F40003846294600F0F7FC58455FEA3F9012904A
:103F5000002087E0C9F1000B584600F0DCFC044665
:103F600019F1010018BF013CABEB040B584600F0FF
:103F7000D9FC16A9054658468B4600F03BFD1AA809
:103F80001CA95A460297CDE90010601B00F17D0381
:103F90004046514600F0E7FB04EB090B8246012C3A
:103FA0001BD8089B002E069D4CF6CD46CCF6CC4681
:103FB00008D0DDE91C0201381C9062F100001D9060
:103FC000002013900120129050E04CF6CD460020C6
:103FD000CDE91200CCF6CC4646E0089B4CF6CD4627
:103FE000069DCCF6CC463E2C25D84FF0FF30B4F1E0
:103FF000200200FA04F758BF0027149C58BF9040D5
:10400000159A24EA070722EA000038435FEA1F9066
:104010001290002011E0059888B91398C043C01988
:1040200065F1000100F087FC58455FEA3F9013906E
:104030000020129017E000201290139016E047F035
:104040000200294600F077FCDDE91C124B1E62F1EC
:104050000005584553EA21801C9055EA22801D90A6
:104060000020129013902146089B069D002D0C9372
:104070004AD0BAF10A0071F1000001D2012037E004
:1040800000274FF00A0C02204FF064094FF47A78B1
:1040900042F2107E0A22A2FB0C4507EB870305EBD8
:1040A0004303BAEB040471EB030320D3A2FB0934EE
:1040B00007FB0944BAEB030371EB040314D3A2FB1F
:1040C000083407FB0844BAEB030371EB04030DD378
:1040D000A2FB0E23043007FB0E37BAEB020371EB91
:1040E0000703D8D2013802E0013000E00230089B1B
:1040F000079A0BEB02073844B0EBD27FB8BFD00F62
:10410000834253EAB0800C90CDF80CB00DF1680BEF
:104110001D9C16AD9BE8000B00201591149011908A
:104120000B902FE01599504632464FF0CC3316AD28
:104130004FEADB04009500F06AFD1498BB46129923
:1041400010F0FF0FDDE916235FEA1F90014008EB36
:1041500088001291404210994942B1EB400F1399E7
:104160005FEA1F9001401391D00840EA437101EBD0
:104170008000AAEB4000149011988A4601301190FB
:10418000D80815905846214632464FF0CC3300955A
:10419000CDF834B00E9400F03AFD40464946324620
:1041A0004FF0CC33DDE9164B0095CDE90F9800F0C8
:1041B0002EFDDDE91601E20842EA4B774FEAD1090C
:1041C000C00840EA4178B8EB070079EBDB00A9D3DF
:1041D0001599BAF10A0071F1000001D201203BE00B
:1041E0000A9700250A2202204FF00A0C64274FF498
:1041F0007A7EA2FB0C3605EB850406EB4406BAEB8F
:10420000030371EB060322D3A2FB073605FB076607
:10421000BAEB030371EB060316D3A2FB0E3605FBC4
:104220000E66BAEB030371EB06030FD342F2107470
:104230000430A2FB042305FB0435BAEB020371EB47
:104240000503D6D2013802E0013000E002300A9FB7
:104250004CF6CD46CCF6CC460C9A4AEA0103134301
:104260005FEA1F93904203DD13B901200B905AE7D8
:104270001398C00771D0DDF8408032460F994FF097
:10428000CC3316AD0095404600F0C1FCDDE91610B8
:10429000C8F10003DDF848B0CA0842EA407404EBF4
:1042A00082025242B3EB420F5FD1C208DDF8449064
:1042B000DDF850C0DDE90D01904632464FF0CC33B9
:1042C000CDF850C0009500F0A2FC15993246169822
:1042D0004FF0CC3312905046179F009500F097FC9A
:1042E0004CF6CD4216A8009020464146CCF6CC4272
:1042F0004FF0CC33DDE91665CDF83C8000F087FC4B
:10430000F10841EA457E14980EEB8101A046ED08C4
:1043100010F0FF0FAAEB410C5FEA1F90DDE91612C7
:104320000BEA000B12984CF6CD461595CB0843EAE4
:104330004274C00804EB830340EA47705B4209F112
:10434000010916ADF908C8F10007CCF6CC46D20831
:10435000F246B7EB430FAFD00CE00DF1400BD64661
:10436000DDF850C09BE8000B04E0D646DDF8449031
:10437000DDF850C0159A8EEA08010F9813464240A6
:1043800011430B9A5FEA0F911143CA07059900295F
:104390005FEA1F91002A04BF139A11EA02010ED0AE
:1043A0005FFA8CF105295FEA0F92042962EA0B0299
:1043B0005FEA9F9142EA0E0202EA010C01E04FF02F
:1043C000010C039809EB00051EEB0C0043F1000102
:1043D000B0F10A0271F1000201D2012338E0AE46C9
:1043E00000264FF00A0802234FF0640B4FF47A7A4C
:1043F00042F210790A25A5FB087206EB860402EB4F
:104400004402C41B71EB02021DD3A5FB0B2406FB67
:104410000B44821A71EB040212D3A5FB0A2406FB9B
:104420000A44821A71EB04020CD3A5FB095204332F
:1044300006FB0926421B71EB0602DCD2013B02E0BF
:10444000013300E002334CF6CD467546CCF6CC463F
:104450000C9A93425FEADC82012A079A3AD1069FBE
:104460004FB12A441A44012AD8BF0122089F97421B
:1044700057EAB2820C920C9A93422BDD05304CF62F
:10448000CD4741F10001CCF6CC474008013B40EA62
:10449000C170013510EB51024FEA510142F10002A7
:1044A000A2FB077626F0030707EB96074FF0CC3602
:1044B000D21B821A4CF6CD40CCF6CC4061F1000103
:1044C000A2FB000702FB06724CF6CD46CCF6CC46AA
:1044D00001FB06210C9A934253EAB2822BB214B22A
:1044E0002344A3F10108012CC0F2348102F003033C
:1044F000099ACDF84880042C02F10509119314940F
:1045000002D24FF0000AA9E0E31A2244149C02F1FF
:1045100004084FF0000A13936422002383460F46D9
:10452000FFF774FC420800F0010042EAC17212EB8E
:10453000510141F10001A1FB062323F0030202EB2C
:1045400093020023891A4FF47A7240EA41003946F7
:1045500040F0300015905846FFF758FC42084CF6E2
:10456000CD4642EAC172CCF6CC4612EB510100F0C6
:10457000010041F100024FEA5B0141EAC77111EB12
:10458000570343F10003A3FB066525F0030606EB82
:1045900095069B1B6FF00206CB1A4CF6CD41CCF66C
:1045A000CC41A3FB011C01EB8105ABEB450545F0BC
:1045B000300508F804598AEA0605159E254409F8CD
:1045C00005604CF6CD46CCF6CC46A2FB065626F04E
:1045D000030505EB9606A2EB06024CF6CD46CCF69B
:1045E000CC4640EA42006FF0030282EA0A0240F041
:1045F0003000224409F802004FF0CC304FEA570255
:1046000003FB00C062F1000202FB06004A0801F051
:10461000010142EAC07212EB500040F10000A0FB21
:10462000062323F0030202EB93020023801A42F2D6
:10463000107241EA40006FF0010181EA0A0140F086
:104640003000214409F8010058463946FFF7DEFBE7
:104650000AF1040A139A52457FF45EAFDDF844E094
:10466000DDF84880149CBEF1000F73D042084CF670
:10467000CD4742EAC172CCF6CC4712EB51036FEA48
:104680000A0543F100032544A3FB077626F0030740
:1046900007EB96074E08DB1BD31A4CF6CD42CCF63F
:1046A000CC4266F1000CA3FB0227BEF1010F02EB26
:1046B0008206A0EB460646F0300609F8056049D0B0
:1046C0004FF0CC364CF6CD4503FB06734CF6CD4788
:1046D000CCF6CC47CCF6CC450CFB0733570802F0A0
:1046E000010247EAC37717EB53034CF6CD4743F17A
:1046F0000003CCF6CC47BEF1020FA3FB077626F0F1
:10470000030707EB9607A3EB070342EA4302A4EB78
:104710000A0303EB090642F0300206F8022C19D016
:1047200064220023FFF772FB420800F0010042EA16
:10473000C17212EB510141F10001A1FB052323F0ED
:10474000030202EB9302891A40EA410040F0300074
:1047500006F8030C099804990171C0F800802046FE
:1047600021B0BDE8F08F2DE9F04F8BB0490041EA50
:10477000D07405931646D2E9002345002846214609
:1047800008AF009700F043FAD6E90223834606A853
:104790008946009028462146DDE9087A00F037FA7C
:1047A00010EB0708DDE906234AEB010ADDE9080101
:1047B000571C059C43F10005B8EB00007AEB0100A3
:1047C000A4F1410455EA338357EA328296E8830024
:1047D00017EB0807F568049445EB0A0510EB0B008E
:1047E00059EB0100009457F10000CDE9062345F193
:1047F0000001571C43F10005B0EB080471EB0A04FB
:10480000CDF80CB055EA338357EA3282CDF80890E0
:1048100000F01BFADDE91429169BC2E9000143B33D
:10482000D6E900C1D6E902560398B8EB0505DDE9E3
:1048300006236AEB06066C1E66F10007B0EB0C005F
:104840000298DDF810B08841CDF800B054EA358008
:1048500057EA3681571E63F10006B8EB00057AEB84
:10486000010557EA328256EA338300F0EEF95F46DB
:104870003EE0DDE906204FEA4804D6E900EC01906D
:104880000598D6E90276A0F14005029800954FEA16
:104890004A05039945EAD87544EAD0744300E71BFA
:1048A00065EB0606B7F1010B43EAD17366F1000030
:1048B000DEEB410173EB0C0150EA36815BEA378095
:1048C000B4EB0803019F75EB0A035FEA2F937F00A7
:1048D00043EA420347EAD2775A1E67F10006241AD8
:1048E0008D4152EA338256EA378300F0AEF9049FD5
:1048F000DDE90623C9E9000140465146009700F072
:10490000A4F90BB0BDE8F08F43F24141C0F20101C0
:104910004843800C704742F6FB61C0F20B014843EC
:10492000000D704749F24F31C0F212014843012196
:1049300001EBD04070472DE9F04F4CF6CD4E45F6D7
:10494000294442F6F50A47F6D50847F6916943F23D
:10495000343B02460020CCF6CC4E4FF03333CCF241
:104960008F24C8F65C7AC2F2E968C3F6FB29C3F269
:10497000333BA2FB0E5C4FF0CC3702FB07C7D5F1EF
:10498000333501FB0E7773EB07072ED3A2FB0475BB
:1049900002FB0A55D7F1333701FB045573EB0507CA
:1049A00022D3A2FB087540F63106C1F6AC4602FBE5
:1049B0000655D7F1333701FB085573EB050716D3BE
:1049C000A2FB09754CF67066CDF28826043002FB16
:1049D000065201FB0921B7EB0B0271F133323A4663
:1049E000C7D30138BDE8F08F0130BDE8F08F023049
:1049F000BDE8F08F2DE9F04F87B005464EF64F40E9
:104A0000C4F6C4608B46A5FB0001C8081A2100FB50
:104A100001F645F22811C0F2002101EB0010B54269
:104A200009D190E80E00C0688BE80E00CBF80C00AE
:104A300007B0BDE8F08FD0E9009245F2F811C0F25E
:104A400000210192D0E90223A81B51F8307001EB3C
:104A5000C000446804A800903846214600F0D7F80A
:104A6000019B824602A888460090384621464A4665
:104A700000F0CDF881460191DDE90201002210EB42
:104A80000A0758EB010842F10000012806D1DDE9D0
:104A900004010130049041F1000005902846FFF721
:104AA00041FF04463046FFF73DFF0199241A48466E
:104AB0003A464346009400F0C8F86FF0030245F20E
:104AC000C82302EA9502C0F200239A581E2303EA83
:104AD0004503DA4002F003068019DDE9042341F1C1
:104AE0000001CBE9000138464146009400F0ADF8E2
:104AF000CBE9020107B0BDE8F08F2DE9F04F87B098
:104B00008B464EF64F4105461930C4F6C461A0FBF2
:104B10000101C8081A2100FB01F645F22031C0F25C
:104B2000002101EB0010AE4209D190E80E00C068F0
:104B30008BE80E00CBF80C0007B0BDE8F08FD0E991
:104B400000A245F2F811C0F200210192D0E902233F
:104B5000701B51F8307001EBC000446804A800904D
:104B60003846214600F053F8804602A80090BAF17A
:104B7000010201988946214660F10003384600F0A1
:104B800046F804468A46DDE90201002210EB0807D8
:104B900051EB090842F10000012806D1DDE90401CA
:104BA0000130049041F1000005903046FFF7BAFE55
:104BB00006462846FFF7B6FE361A204651463A46C4
:104BC0004346009600F041F86FF0030245F21043AF
:104BD00002EA9502C0F200239A581E2303EA450315
:104BE000DA4002F003054019DDE9042341F1000138
:104BF000013041F10001CBE9000138464146009601
:104C000000F023F8CBE9020107B0BDE8F08FF0B562
:104C1000A2FB01CEA2FB0075A3FB011415EB0C0552
:104C2000DDF814C051EB0E06294644F1000432466B
:104C3000E3FB0012A3FB0003401956EB030044F111
:104C40000000CCE900203846F0BD10B5DDF808C002
:104C5000CCF1400ECEF1200420FA0CF003FA0EF352
:104C600022FA04F42343DCF1200458BF02FA04F3CF
:104C700002FA0EF201FA04F440EA040058BF0022DE
:104C8000BCF1200458BF21FA04F021FA0CF158BFFE
:104C900000211043194310BD01000200080010005C
:104CA0002000D4D4000000800000008060040622B0
:104CB0006004062207000000CC4C00020D0000003A
:104CC000204D000202000000A44C00020000008001
:104CD000000000800001000800000080000000804B
:104CE00000010008000000000000000001000005B5
:104CF00000000020000000200100000460040622E3
:104D000060040622000000038C180622141C0622F0
:104D100000000003141C0622181C062200000003D9
:104D200000000080000000800000009000010908E1
:104D30000000008000000080000000270001020841
:104D40000000008000000080500000020001010807
:104D500000000000000000000000009001010905B3
:104D60000000000000000000000000270100020514
:104D700000000000000000005000000201000105DA
:104D80000000002000000020000000900101090444
:104D900000000020000000200000002701000204A5
:104DA000000000200000002050000002010001046B
:104DB0000000062200000622000000900001090306
:104DC0000000062200000622000000270000020367
:104DD000000006225C0406225000000200000103CD
:104DE000141C0622141C0622AC040002000001035D
:104DF000020403040404D4D4410D0002AF0F0002E6
:104E0000B90F00020510000237100002491000021D
:104E10008710000299100002851100029311000210
:104E200097110002060000000800000003000000C7
:104E3000050000000A00000000010000000006223A
:104E40000F00FFFF00000001010000000902000048
:104E50000C000C010C020C0300000000000000001C
:104E60005119000200000000384E0002FC18062212
:104E70004C4E0002F84D000200000000010000004E
:104E8000000000000300000000000000040000001B
:104E900000400000060000000000000007000000C5
:104EA0000040000009000000004000000A0000006F
:104EB000000000000E000000000000000F000000D5
:104EC00000000105010100000000010502010000D1
:104ED00000000000050100000000000006010000C5
:104EE0000400000007010000000000000C010000A9
:104EF000000000000D010000000000000E01000095
:104F00000000000003020000000000000402000096
:104F1000000001000802000000000100090200007A
:104F2000000001000A020000000001000B02000066
:104F30000000000000030000000000000203000069
:104F4000000000000303000000000000090300004F
:104F5000000000000A030000000000000B03000036
:104F60000000010F000400000000010F0104000018
:104F700004000000040400000000010F050400000C
:104F80000000010F060400000400000008040000F7
:104F900000000000040600000000000005060000FC
:104FA0000000000009060000000000000A060000E2
:104FB000000000000B060000000000000C060000CE
:104FC000000000000E0600000000010F00070000B6
:104FD0000000010F010700000000010F02070000A0
:104FE0000000010F030700000000010F0807000088
:104FF0000000010F090700000000010F0A07000070
:10500000000000000108000000000000020800008D
:105010000000000003080000000000000408000079
:10502000000000000908000036000000784E000271
:105030000000000063016401650166014006000094
:10504000000100003C5000020F00FFFF00000001C3
:1050500001000000090200000C000C010C020C030E
:105060000000000000000000000000000000000040
:105070004050000202010101301906225450000282
:10508000F84D0002090200000C000C010C020C0398
:105090000000000000000000000000000000000010
:1050A0004050000240060000000100003C50000299
:1050B0000F00FFFF000000010100000000000000E1
:1050C00000000000000000000000000000000000E0
:1050D00000000000000000000000000000000000D0
:1050E00000000000000000000000000000000000C0
:1050F0002C0006223C000622696E66000D5379736F
:1051000074656D20496E69740D006E616E00596F93
:10511000752074797065643A2025630D0A00286E45
:10512000756C6C2900D4D4D400000000000000008D
:10513000000000000000001000000000000000005F
:10514000B9340332B7F4AD1410DB1AB30892540E1D
:105150000D307D951447BA1A66088F4D26ADC66D81
:10516000F598BF85E2B74511CA96853D92BD1DEB06
:10517000FCA11860DCEF52163C92AE220BB8C1B411
:10518000839D2D5B0562DA1C304C7E8F4E8BB25BAB
:1051900016F4529F8B56A512FBD4827643ED8AF00B
:1051A0008FE7F9311565191850F19BD94A13EEB400
:1051B000284CF0A686C1251F035FC270CB9E4916FE
:1051C000E642889C44EB2014B0650836AD6EA58598
:1051D00085F0CA14E2FD031A0B899979D5B13D090E
:1051E000D8DA973A35EBCF10AC363F5E73BB38CF89
:1051F0003E6752FA44AFBA150100000000000000FB
:105200000500000000000000190000000000000080
:105210007D0000000000000071020000000000009E
:10522000350C000000000000093D000000000000F7
:105230002D31010000000000E1F505000000000034
:1052400065CD1D0000000000F9029500000000007F
:10525000DD0EE90200000000514A8D0E0000000042
:105260009573C24800000000E941CC6B01000000CA
:105270008D49FD1A07000000C16FF286230000006F
:10528000C52EBCA2B1000000D9E9AC2D7803000006
:105290003D9160E45811000031D6E275BC56000023
:1052A000F52E6E4DAEB10100C9EA2683677808007D
:1052B000ED95C28F055A2A00A1EDCCCE1BC2D300BA
:1052C00025A4000A8BCA2204000000000000000090
:1052D00000000000000000000000004095596959DE
:1052E00055555455155555560405154110545540FE
:1052F00045515544404550445055554500400040A7
:105300004004449665555655454045545141154015
:10531000559155555555405105010000D4D4D4D46C
:10532000010000000000000000000000000000205C
:10533000345065C05FC9A652BB13CBAEC440C2187F
:1053400006C8DF7100D5A87CF56F0FDA58FC27136B
:105350006E4756357D24206502C7E768E48CA41D9E
:10536000E9E60268D7CD39617977FCC2405BEF1678
:10537000798CDE43FFA751F991F3B278F5BDBE11E8
:10538000E857E9D6E8BEE87BB054AC8F848D751B36
:10539000EA23A499E9F9D38BB7A3714061DA3E15EA
:1053A000CEE33ECB73F948088C97B427D51B701019
:1053B000A2BFEFB9EB8532154DB44DB49BBB6F194D
:1053C00096B6076CF8E7EEAD36D9B4F59135AE1365
:1053D000222218AF4E6A684D91DAAA3D4F40741EE2
:1053E0009FBD9EE006A1C09857C2A7FDA40E9017CE
:1053F0000E7D497173E3208FB220D87605143B12DD
:10540000853D7434811343B0AD297A5F27F4351C90
:10541000544554544555050400100410140440002C
:10542000000001405555154154040000440001009E
:105430000000004041000044504445505400555580
:105440005455655100400040010000010005010075
:105450001154515154555505001541500000044058
:10546000100104050000000000000506362E352E50
:1054700030004275696C7420776974682052656EDB
:105480006573617320416476616E63656420466C68
:10549000657869626C6520536F6674776172652008
:1054A0005061636B6167652076657273696F6E200A
:0654B000362E352E3000FF
:0454B80008000000E8
:020000040300F7
:04A10000FFFFFFFF5F
:04A10400FFFFFFFF5B
:04A20000FFF5FFFD6A
:04A2800000000000DA
:04000005020004B938
:00000001FF
